:100000000C9416240C9447240C9447240C944724F5
:100010000C9447240C9447240C9447240C944724B4
:100020000C9447240C9447240C9447240C944724A4
:100030000C9447240C9447240C9447240C94472494
:100040000C9447240C9440CF0C9447240C944724E0
:100050000C9447240C9447240C94D2C10C945AC09D
:100060000C9447240C9423560C94ED550C9447247F
:100070000C9447240C9447240C9447240C94472454
:100080000C9475430C9447240C9447240C944724F7
:100090000C9447240C9447240C9447240C94472434
:1000A0000C9447240C9447240C9447430C94472405
:1000B0000C9447240C9447240C9447240C94472414
:1000C0000C9447240C9447240C9447240C94472404
:1000D0000C9447240C9447240C9447240C944724F4
:1000E0000C944724084AD73B3BCE016E84BCBFFD2D
:1000F000C12F3D6C74319ABD56833DDA3D00C77FF8
:1001000011BED9E4BB4C3E916BAAAABE0000008090
:100110003F05A84CCDB2D44EB93836A9020C50B91F
:10012000918688083CA6AAAA2ABE000000803F0744
:10013000634236B79BD8A71A39685618AEBAAB5582
:100140008C1D3CB7CC5763BD6DEDFD753EF6177247
:1001500031BF000000803F08000000BE9224491219
:100160003EABAAAA2ABECDCCCC4C3E00000080BE3D
:10017000ABAAAAAA3E00000000BF000000803F001A
:1001800000000000084178D3BB4387D1133D190E0E
:100190003CC3BD4282AD2B3E68EC8276BED98FE176
:1001A000A93E4C80EFFFBE01C4FF7F3F000000006E
:1001B00000004E414E494E495459494E46CDCCCC93
:1001C0003D0AD7233C17B7D13877CC2B329595E62B
:1001D000241FB14F0A000020410000C84200401C0B
:1001E0004620BCBE4CCA1B0E5AAEC59D7400407A58
:1001F00010F35A00A0724E18090010A5D4E80000B0
:10020000E87648170000E40B54020000CA9A3B004D
:100210000000E1F505000080969800000040420FC4
:10022000000000A08601000000102700000000E888
:1002300003000000006400000000000A000000004D
:10024000000100000000002C76D888DC674F0823EE
:10025000DFC1DFAE59E1B1B796E5E3E453C63AE654
:1002600051997696E8E6C28426EB898C9B62ED4034
:100270007C6FFCEFBC9C9F40F2BAA56FA5F4900583
:100280005A2AF75C936B6CF9676DC11BFCE0E40DB7
:1002900047FEF520E6B500D0ED902E0300943577AB
:1002A000050080841E080000204E0A000000C80CD3
:1002B000333333330F986E12831141EF8D2114893C
:1002C0003BE65516CFFEE6DB18D1844B381BF77C96
:1002D0001D901DA4BBE424203284725E228100C9DB
:1002E000F124ECA1E53D27E902363726033C3D38F1
:1002F0000E2E303E1224221E131A1C180A07430920
:10030000070844000170012C0190012701B001226F
:1003100001C0011D01F00118011002130130020E8D
:10032000016002090190020401C002FF000003FA0B
:10033000004003F5008003F000D003EB002004E64A
:10034000007004E100E004DC004005D700C005D2E5
:10035000004006CD00D006C8008007C3003008BEAC
:1003600000F008B900C009B400B00AAF00B00BAA91
:1003700000D00CA500000EA000500F9B00C01096EE
:10038000005012910000148C00C0158700B0178235
:1003900000B0197D00D01B7800001E730040206E55
:1003A0000090226900F024640040275F0090295AE1
:1003B00000E02B5500102E500020304B001032462C
:1003C00000E033410090353C001037370070383280
:1003D00000A0392D00B03A2800A03B2300603C1E4D
:1003E00000103D1900903D1400103E0F00703E0AB1
:1003F00000C03E0500003F0000403FFBFF803FF68D
:10040000FFC03FF1FF24F404D9201BC40C5C0E98FC
:1004100004C4095F0265077101F405F900FB04B328
:100420000048048700C103690058035500030345D1
:1004300000BE023A008402310053022A002902253C
:100440000004022000E4011C00C8011900AF0117DC
:100450000098011400840113007101100061011063
:100460000051010E0043010D0036010B002B010B62
:100470000020010B00150109000C0109000301080F
:1004800000FB000800F3000800EB000700E4000692
:1004900000DE000600D8000600D2000600CC0005F1
:1004A00000C7000500C2000500BD000400B900043B
:1004B00000B5000400B1000400AD000400A9000470
:1004C00000A5000300A20003009F0004009B00039E
:1004D00000980003009500020093000300900003C1
:1004E000008D0002008B00030088000200860002DD
:1004F0000084000300810002007F0002007D0002F2
:10050000007B000200790002007700010076000203
:10051000007400020072000100710002006F00020E
:10052000006D0001006C0002006A00010069000219
:100530000067000100660001006500010064000220
:10054000006200010061000100600001005F000224
:10055000005D0001005C0001005B0001005A000129
:100560000059000100580001005700010056000129
:100570000055000100540001005300000053000129
:10058000005200010051000100500001004F000125
:10059000004E0000004E0001004D0001004C000123
:1005A000004B0000004B0001004A0001004900011F
:1005B000004800000048000100470001004600001C
:1005C0000046000100450000004500010044000114
:1005D000004300000043000100420000004200010F
:1005E000004100000041000100400001003F000008
:1005F000003F0001003E0000003E0001003D000001
:10060000003D0001003C0000003C0000003C0001F7
:10061000003B0000003B0001003A0000003A0001EE
:1006200000390000003900010038000000380000E7
:1006300000380001003700000037000100360000DC
:1006400000360000003600010035000000350000D3
:1006500000350001003400000034000000340001C7
:1006600000330000003300000033000100320000BE
:1006700000320000003200010031000000310000B3
:1006800000310001003000000030000000300001A7
:10069000002F0000002F0000002F0000002F00019D
:1006A000002E0000002E0000002E0001002D000092
:1006B000002D0000002D0000002D0001002C000086
:1006C000002C0000002C0000002C0001002B00007A
:1006D000002B0000002B0000002B0001002A00006E
:1006E000002A0000002A0000002A00010029000062
:1006F0000029000000290000002900000029000155
:100700000028000000280000002800000028000049
:10071000002800010027000000270000002700003B
:10072000002700000027000100260000002600002E
:100730000026000000260000002600010025000021
:100740000025000000250000002500000025000015
:100750000025000100240000002400000024000007
:1007600000240000002400010023000000230000FA
:1007700000230000002300000023000000230000ED
:1007800000230001002200000022000000220000DF
:1007900000220000002200000022000100210000D1
:1007A00000210000002100000021000000210000C5
:1007B00000210000002100010020000000200000B6
:1007C00000200000002000000020000000200000A9
:1007D0000020000000200001001F0000001F00009A
:1007E000001F0000001F0000001F0000001F00008D
:1007F000001F0001001E0000001E0000001E00007F
:10080000001E00000024F4D43050C38E20C2A24049
:1008100017828B7011127A910D816CD90AA861E14F
:1008200008C7586607615143061E4B5D05C145A7C1
:10083000041A411104093D9803713931034036DB34
:100840000265339102D4305402802E1D02632CEED7
:1008500001752AC501B028A001102781018F2564E8
:10086000012B244B01E0223401AC211F018D200D0E
:1008700001801FFC00841EED00971DDF00B81CD214
:1008800000E61BC600201BBC00641AB200B219A807
:10089000000A19A0006A189900D117910040178B1F
:1008A00000B516840031167E00B31579003A157331
:1008B00000C7146F0058146A00EE136600881363B3
:1008C0000025135E00C7125B006C1257001512540E
:1008D00000C111510070114F0021114B00D6104979
:1008E000008D1047004610440002104200C00F4027
:1008F00000800F3E00420F3C00060F3B00CB0E383D
:1009000000930E37005C0E3500270E3400F30D32D5
:1009100000C10D3100900D3000600D2E00320D2D04
:1009200000050D2C00D90C2B00AE0C2900850C29DC
:10093000005C0C2700350C27000E0C2600E80B2469
:1009400000C40B2400A00B23007D0B23005A0B21B5
:1009500000390B2100180B2000F80A1F00D90A1ECD
:1009600000BB0A1E009D0A1D00800A1D00630A1CB0
:1009700000470A1B002C0A1B00110A1A00F7091A6B
:1009800000DD091900C4091900AB09190092091703
:10099000007B091800630917004C09160036091678
:1009A00000200916000A091500F5081500E00814D2
:1009B00000CC081400B8081400A408140090081310
:1009C000007D0812006B0813005808120046081238
:1009D0000034081100230811001208110001081149
:1009E00000F0071000E0071000D0071000C007104B
:1009F00000B0070F00A107100091070E0083070F3A
:100A00000074070F0065070E0057070E0049070E18
:100A1000003B070D002E070E0020070D0013070DE9
:100A20000006070D00F9060C00ED060D00E0060CAF
:100A300000D4060C00C8060C00BC060C00B0060C66
:100A400000A4060B0099060C008D060B0082060B15
:100A50000077060B006C060B0061060A0057060BB8
:100A6000004C060A0042060A0038060A002E060A52
:100A70000024060A001A060A001006090007060AE2
:100A800000FD050900F4050900EB050900E2050970
:100A900000D9050900D0050900C7050900BE0509F0
:100AA00000B5050800AD050800A50509009C05086E
:100AB00000940508008C050800840508007C0508E2
:100AC00000740508006C050700650508005D050752
:100AD00000560508004E05070047050700400508B9
:100AE0000038050700310507002A05070023050720
:100AF000001C050600160507000F0507000805067F
:100B00000002050700FB040600F5040700EE0406DA
:100B100000E8040600E2040700DB040600D5040632
:100B200000CF040600C9040600C3040600BD040685
:100B300000B7040600B1040500AC040600A60406D4
:100B400000A00405009B040600950405009004061F
:100B5000008A04050085040500800406007A040567
:100B60000075040500700405006B040500660405AB
:100B700000610405005C04050057040500520405EB
:100B8000004D04050048040500430405003E04042C
:100B9000003A04050035040500300404002C040567
:100BA0000027040400230405001E0404001A0404A2
:100BB0000016040500110404000D040400090405D6
:100BC000000404040000040400FC030400F803040F
:100BD00000F4030400F0030400EC030400E8030441
:100BE00000E4030400E0030400DC030400D8030471
:100BF00000D4030400D0030400CC030400C80303A2
:100C000000C5030300726F746174696F6E206D61BB
:100C1000747269783A0A0024F404D9201BC40C5C6D
:100C20000E9804C4095F0265077101F405F900FB21
:100C300004B30048048700C103690058035500034A
:100C4000034500BE023A008402310053022A002903
:100C500002250004022000E4011C00C8011900AFB5
:100C60000117009801140084011300710110006144
:100C700001100051010E0043010D0036010B002B45
:100C8000010B0020010B00150109000C01090003F4
:100C9000010800FB000800F3000800EB000700E477
:100CA000000600DE000600D8000600D2000600CCD8
:100CB000000500C7000500C2000500BD000400B922
:100CC000000400B5000400B1000400AD000400A958
:100CD000000400A5000300A20003009F0004009B85
:100CE00000030098000300950002009300030090A9
:100CF0000003008D0002008B0003008800020086C4
:100D000000020084000300810002007F0002007DD9
:100D10000002007B000200790002007700010076EB
:100D20000002007400020072000100710002006FF6
:100D30000002006D0001006C0002006A0001006901
:100D40000002006700010066000100650001006408
:100D50000002006200010061000100600001005F0C
:100D60000002005D0001005C0001005B0001005A10
:100D70000001005900010058000100570001005611
:100D80000001005500010054000100530000005311
:100D90000001005200010051000100500001004F0D
:100DA0000001004E0000004E0001004D0001004C0B
:100DB0000001004B0000004B0001004A0001004907
:100DC0000001004800000048000100470001004603
:100DD00000000046000100450000004500010044FD
:100DE00000010043000000430001004200000042F7
:100DF0000001004100000041000100400001003FEF
:100E00000000003F0001003E0000003E0001003DE8
:100E10000000003D0001003C0000003C0000003CE0
:100E20000001003B0000003B0001003A0000003AD6
:100E300000010039000000390001003800000038CE
:100E400000000038000100370000003700010036C4
:100E500000000036000000360001003500000035BB
:100E600000000035000100340000003400000034B0
:100E700000010033000000330000003300010032A5
:100E8000000000320000003200010031000000319B
:100E90000000003100010030000000300000003090
:100EA0000001002F0000002F0000002F0000002F85
:100EB0000001002E0000002E0000002E0001002D79
:100EC0000000002D0000002D0000002D0001002C6E
:100ED0000000002C0000002C0000002C0001002B62
:100EE0000000002B0000002B0000002B0001002A56
:100EF0000000002A0000002A0000002A000100294A
:100F0000000000290000002900000029000000293D
:100F10000001002800000028000000280000002830
:100F20000000002800010027000000270000002723
:100F30000000002700000027000100260000002616
:100F40000000002600000026000000260001002509
:100F500000000025000000250000002500000025FD
:100F600000000025000100240000002400000024EF
:100F700000000024000000240001002300000023E2
:100F800000000023000000230000002300000023D5
:100F900000000023000100220000002200000022C7
:100FA00000000022000000220000002200010021B9
:100FB00000000021000000210000002100000021AD
:100FC000000000210000002100010020000000209E
:100FD0000000002000000020000000200000002091
:100FE00000000020000000200001001F0000001F82
:100FF0000000001F0000001F0000001F0000001F75
:101000000000001F0001001E0000001E0000001E66
:101010000000001E00000024F4D43050C38E20C213
:10102000A24017828B7011127A910D816CD90AA897
:1010300061E108C7586607615143061E4B5D05C153
:1010400045A7041A411104093D9803713931034041
:1010500036DB0265339102D4305402802E1D0263C8
:101060002CEE01752AC501B028A001102781018F3F
:101070002564012B244B01E0223401AC211F018D9A
:10108000200D01801FFC00841EED00971DDF00B8BD
:101090001CD200E61BC600201BBC00641AB200B2C2
:1010A00019A8000A19A0006A189900D117910040E8
:1010B000178B00B516840031167E00B31579003AFF
:1010C000157300C7146F0058146A00EE1366008889
:1010D00013630025135E00C7125B006C12570015E6
:1010E000125400C111510070114F0021114B00D654
:1010F0001049008D1047004610440002104200C005
:101100000F4000800F3E00420F3C00060F3B00CB1B
:101110000E3800930E37005C0E3500270E3400F3B6
:101120000D3200C10D3100900D3000600D2E0032E7
:101130000D2D00050D2C00D90C2B00AE0C290085BF
:101140000C29005C0C2700350C27000E0C2600E84B
:101150000B2400C40B2400A00B23007D0B23005A9A
:101160000B2100390B2100180B2000F80A1F00D9B1
:101170000A1E00BB0A1E009D0A1D00800A1D006396
:101180000A1C00470A1B002C0A1B00110A1A00F750
:10119000091A00DD091900C4091900AB09190092E8
:1011A0000917007B091800630917004C091600365F
:1011B000091600200916000A091500F5081500E0B7
:1011C000081400CC081400B8081400A408140090F7
:1011D0000813007D0812006B08130058081200461F
:1011E0000812003408110023081100120811000130
:1011F000081100F0071000E0071000D0071000C031
:10120000071000B0070F00A107100091070E008320
:10121000070F0074070F0065070E0057070E0049FF
:10122000070E003B070D002E070E0020070D0013D0
:10123000070D0006070D00F9060C00ED060D00E095
:10124000060C00D4060C00C8060C00BC060C00B04E
:10125000060C00A4060B0099060C008D060B0082FC
:10126000060B0077060B006C060B0061060A0057A0
:10127000060B004C060A0042060A0038060A002E39
:10128000060A0024060A001A060A001006090007CA
:10129000060A00FD050900F4050900EB050900E256
:1012A000050900D9050900D0050900C7050900BED8
:1012B000050900B5050800AD050800A50509009C55
:1012C000050800940508008C050800840508007CCA
:1012D000050800740508006C050700650508005D39
:1012E000050700560508004E0507004705070040A2
:1012F00005080038050700310507002A0507002307
:101300000507001C050600160507000F0507000865
:1013100005060002050700FB040600F5040700EEC1
:10132000040600E8040600E2040700DB040600D51A
:10133000040600CF040600C9040600C3040600BD6D
:10134000040600B7040600B1040500AC040600A6BC
:10135000040600A00405009B040600950405009007
:101360000406008A04050085040500800406007A4E
:1013700004050075040500700405006B0405006693
:10138000040500610405005C0405005704050052D3
:101390000405004D04050048040500430405003E13
:1013A0000404003A04050035040500300404002C50
:1013B00004050027040400230405001E0404001A89
:1013C00004040016040500110404000D04040009BF
:1013D0000405000404040000040400FC030400F8F5
:1013E000030400F4030400F0030400EC030400E829
:1013F000030400E4030400E0030400DC030400D859
:10140000030400D4030400D0030400CC030400C888
:10141000030300C503030024F404D9201BC40C5C9F
:101420000E9804C4095F0265077101F405F900FB19
:1014300004B30048048700C1036900580355000342
:10144000034500BE023A008402310053022A0029FB
:1014500002250004022000E4011C00C8011900AFAD
:10146000011700980114008401130071011000613C
:1014700001100051010E0043010D0036010B002B3D
:10148000010B0020010B00150109000C01090003EC
:10149000010800FB000800F3000800EB000700E46F
:1014A000000600DE000600D8000600D2000600CCD0
:1014B000000500C7000500C2000500BD000400B91A
:1014C000000400B5000400B1000400AD000400A950
:1014D000000400A5000300A20003009F0004009B7D
:1014E00000030098000300950002009300030090A1
:1014F0000003008D0002008B0003008800020086BC
:1015000000020084000300810002007F0002007DD1
:101510000002007B000200790002007700010076E3
:101520000002007400020072000100710002006FEE
:101530000002006D0001006C0002006A00010069F9
:101540000002006700010066000100650001006400
:101550000002006200010061000100600001005F04
:101560000002005D0001005C0001005B0001005A08
:101570000001005900010058000100570001005609
:101580000001005500010054000100530000005309
:101590000001005200010051000100500001004F05
:1015A0000001004E0000004E0001004D0001004C03
:1015B0000001004B0000004B0001004A00010049FF
:1015C00000010048000000480001004700010046FB
:1015D00000000046000100450000004500010044F5
:1015E00000010043000000430001004200000042EF
:1015F0000001004100000041000100400001003FE7
:101600000000003F0001003E0000003E0001003DE0
:101610000000003D0001003C0000003C0000003CD8
:101620000001003B0000003B0001003A0000003ACE
:1016300000010039000000390001003800000038C6
:1016400000000038000100370000003700010036BC
:1016500000000036000000360001003500000035B3
:1016600000000035000100340000003400000034A8
:10167000000100330000003300000033000100329D
:101680000000003200000032000100310000003193
:101690000000003100010030000000300000003088
:1016A0000001002F0000002F0000002F0000002F7D
:1016B0000001002E0000002E0000002E0001002D71
:1016C0000000002D0000002D0000002D0001002C66
:1016D0000000002C0000002C0000002C0001002B5A
:1016E0000000002B0000002B0000002B0001002A4E
:1016F0000000002A0000002A0000002A0001002942
:101700000000002900000029000000290000002935
:101710000001002800000028000000280000002828
:10172000000000280001002700000027000000271B
:10173000000000270000002700010026000000260E
:101740000000002600000026000000260001002501
:1017500000000025000000250000002500000025F5
:1017600000000025000100240000002400000024E7
:1017700000000024000000240001002300000023DA
:1017800000000023000000230000002300000023CD
:1017900000000023000100220000002200000022BF
:1017A00000000022000000220000002200010021B1
:1017B00000000021000000210000002100000021A5
:1017C0000000002100000021000100200000002096
:1017D0000000002000000020000000200000002089
:1017E00000000020000000200001001F0000001F7A
:1017F0000000001F0000001F0000001F0000001F6D
:101800000000001F0001001E0000001E0000001E5E
:101810000000001E00000024F4D43050C38E20C20B
:10182000A24017828B7011127A910D816CD90AA88F
:1018300061E108C7586607615143061E4B5D05C14B
:1018400045A7041A411104093D9803713931034039
:1018500036DB0265339102D4305402802E1D0263C0
:101860002CEE01752AC501B028A001102781018F37
:101870002564012B244B01E0223401AC211F018D92
:10188000200D01801FFC00841EED00971DDF00B8B5
:101890001CD200E61BC600201BBC00641AB200B2BA
:1018A00019A8000A19A0006A189900D117910040E0
:1018B000178B00B516840031167E00B31579003AF7
:1018C000157300C7146F0058146A00EE1366008881
:1018D00013630025135E00C7125B006C12570015DE
:1018E000125400C111510070114F0021114B00D64C
:1018F0001049008D1047004610440002104200C0FD
:101900000F4000800F3E00420F3C00060F3B00CB13
:101910000E3800930E37005C0E3500270E3400F3AE
:101920000D3200C10D3100900D3000600D2E0032DF
:101930000D2D00050D2C00D90C2B00AE0C290085B7
:101940000C29005C0C2700350C27000E0C2600E843
:101950000B2400C40B2400A00B23007D0B23005A92
:101960000B2100390B2100180B2000F80A1F00D9A9
:101970000A1E00BB0A1E009D0A1D00800A1D00638E
:101980000A1C00470A1B002C0A1B00110A1A00F748
:10199000091A00DD091900C4091900AB09190092E0
:1019A0000917007B091800630917004C0916003657
:1019B000091600200916000A091500F5081500E0AF
:1019C000081400CC081400B8081400A408140090EF
:1019D0000813007D0812006B081300580812004617
:1019E0000812003408110023081100120811000128
:1019F000081100F0071000E0071000D0071000C029
:101A0000071000B0070F00A107100091070E008318
:101A1000070F0074070F0065070E0057070E0049F7
:101A2000070E003B070D002E070E0020070D0013C8
:101A3000070D0006070D00F9060C00ED060D00E08D
:101A4000060C00D4060C00C8060C00BC060C00B046
:101A5000060C00A4060B0099060C008D060B0082F4
:101A6000060B0077060B006C060B0061060A005798
:101A7000060B004C060A0042060A0038060A002E31
:101A8000060A0024060A001A060A001006090007C2
:101A9000060A00FD050900F4050900EB050900E24E
:101AA000050900D9050900D0050900C7050900BED0
:101AB000050900B5050800AD050800A50509009C4D
:101AC000050800940508008C050800840508007CC2
:101AD000050800740508006C050700650508005D31
:101AE000050700560508004E05070047050700409A
:101AF00005080038050700310507002A05070023FF
:101B00000507001C050600160507000F050700085D
:101B100005060002050700FB040600F5040700EEB9
:101B2000040600E8040600E2040700DB040600D512
:101B3000040600CF040600C9040600C3040600BD65
:101B4000040600B7040600B1040500AC040600A6B4
:101B5000040600A00405009B0406009504050090FF
:101B60000406008A04050085040500800406007A46
:101B700004050075040500700405006B040500668B
:101B8000040500610405005C0405005704050052CB
:101B90000405004D04050048040500430405003E0B
:101BA0000404003A04050035040500300404002C48
:101BB00004050027040400230405001E0404001A81
:101BC00004040016040500110404000D04040009B7
:101BD0000405000404040000040400FC030400F8ED
:101BE000030400F4030400F0030400EC030400E821
:101BF000030400E4030400E0030400DC030400D851
:101C0000030400D4030400D0030400CC030400C880
:101C1000030300C503030070012C0190012701B0EC
:101C2000012201C0011D01F0011801100213013051
:101C3000020E016002090190020401C002FF0000CF
:101C400003FA004003F5008003F000D003EB00200E
:101C500004E6007004E100E004DC004005D700C0A9
:101C600005D2004006CD00D006C8008007C3003072
:101C700008BE00F008B900C009B400B00AAF00B057
:101C80000BAA00D00CA500000EA000500F9B00C0B6
:101C90001096005012910000148C00C0158700B0FF
:101CA000178200B0197D00D01B7800001E73004021
:101CB000206E0090226900F024640040275F0090AD
:101CC000295A00E02B5500102E500020304B0010F8
:101CD000324600E033410090353C00103737007049
:101CE000383200A0392D00B03A2800A03B23006014
:101CF0003C1E00103D1900903D1400103E0F007076
:101D00003E0A00C03E0500003F0000403FFBFF8050
:101D10003FF6FFC03FF1FF5A5F6D6F76655F636FFF
:101D20006D700A003F28532920616E6420285729CE
:101D3000206D6179206E6F7420626520636F6D6223
:101D4000696E65642E0A00616C736F20656E616256
:101D50006C6564290A00206E6F7420646973616287
:101D60006C65642E205368617265642077697468BD
:101D7000002E0A00417869732000206D696E3A00D8
:101D8000206D61783A00416363656C6572617469C6
:101D90006F6E206C696D697465642E0A00534C4F38
:101DA00057000600000701000500070100070600B4
:101DB000000007000500434F4D4D554E4943415427
:101DC000494F4E0044525952554E004552524F52BF
:101DD0005300494E464F004543484F004572726FCD
:101DE000722077726974696E6720746F2045455060
:101DF000524F4D210A0053544F505045442E20005D
:101E00005072696E7465722073746F7070656420AF
:101E100064756520746F206572726F72732E204630
:101E2000697820746865206572726F7220616E64D3
:101E300020757365204D39393920746F20726573B0
:101E4000746172742E202854656D706572617475AA
:101E500072652069732072657365742E20536574F2
:101E60002069742061667465722072657374617292
:101E700074696E67290A004E6F20436865636B734F
:101E8000756D2077697468206C696E65206E756D5C
:101E90006265722C204C617374204C696E653A2027
:101EA00000636865636B73756D206D69736D617434
:101EB00063682C204C617374204C696E653A200075
:101EC0004C696E65204E756D626572206973206E77
:101ED0006F74204C617374204C696E65204E756D73
:101EE0006265722B312C204C617374204C696E65D5
:101EF0003A20004D3131300053657269616C2073B6
:101F00007461747573206D69736D617463680A0020
:101F10002121204B494C4C2063617573656420621C
:101F20007920746F6F206D75636820696E616374CA
:101F30006976652074696D65202D20637572726500
:101F40006E7420636F6D6D616E643A20006275730C
:101F5000793A2070617573656420666F7220696ECE
:101F60007075740A00627573793A207061757365D3
:101F70006420666F7220757365720A0062757379EA
:101F80003A2070726F63657373696E670A00535409
:101F90004F505045442E20005072696E7465722077
:101FA00073746F707065642064756520746F20654C
:101FB00072726F72732E204669782074686520658E
:101FC00072726F7220616E6420757365204D3939AD
:101FD0003920746F20726573746172742E202854D6
:101FE000656D7065726174757265206973207265C4
:101FF0007365742E2053657420697420616674655E
:10200000722072657374617274696E67290A006563
:1020100063686F3A004572726F723A004F4646002D
:102020004F4E00204A0020204D34323120490020FC
:102030002047323920493939390A00556E696669B5
:10204000656420426564204C6576656C696E670046
:102050006163746976650A00696E000020537973C4
:1020600074656D2076312E303120002020207C0ACE
:10207000004E414E0020202E20202000207C004CCD
:1020800043443A0A004353563A0A0020666F7220CE
:10209000003A0A0A000A42656420546F706F677242
:1020A00061706879205265706F72740050726F624F
:1020B000696E67204661696C65640A0050726F62E0
:1020C000696E67204661696C656400205A3A200099
:1020D00020593A200042656420583A20004732389F
:1020E0004C3000446F6E652E0A003F496E76616C7D
:1020F00069642073746F7261676520736C6F742EEE
:102100000A3F557365203020746F20003F454550CD
:10211000524F4D2073746F72616765206E6F74202B
:10212000617661696C61626C652E0A00446F6E6550
:102130002E0A003F496E76616C69642073746F7279
:1021400061676520736C6F742E0A3F55736520308C
:1021500020746F20003F454550524F4D2073746FDF
:1021600072616765206E6F7420617661696C61626F
:102170006C652E0A003F5034206973206F6E6C79B5
:1021800020617661696C61626C65207768656E209C
:10219000616E204C43442069732070726573656ED4
:1021A000742E0A003F5032206973206F6E6C7920C4
:1021B000617661696C61626C65207768656E20612B
:1021C0006E204C43442069732070726573656E7491
:1021D0002E0A00292E0A0A0050726F62696E67206B
:1021E00061726F756E642028004D65736820696E9A
:1021F00076616C6964617465642E2050726F6269E7
:102200006E67206D6573682E0A004D657368207ACD
:1022100065726F65642E0A0044656661756C742092
:1022200073746F7261676520736C6F7420302073F4
:10223000656C65637465642E0A004C6F6164696E39
:102240006720746573745F7061747465726E207654
:10225000616C7565732E0A0A00496E76616C69645B
:1022600020746573745F7061747465726E2076613A
:102270006C75652E20282D3120746F2032290A0AB2
:102280000020696E76616C6964617465642E0A0A67
:10229000004C6F636174696F6E7300456E74697290
:1022A00065204D657368005374616E6461726420CB
:1022B000446576696174696F6E3A20004D65616EA0
:1022C000204D657368204865696768743A2000236B
:1022D000206F662073616D706C65733A20002E0A62
:1022E000002F0050726F62696E67206D6573682001
:1022F000706F696E742000496E76616C6964206D40
:10230000617020747970652E0A0A003F28462961A1
:1023100064652068656967687420666F722042652D
:1023200064204C6576656C20436F727265637469D6
:102330006F6E206E6F7420706C61757369626C656E
:102340002E0A0A003F43616E277420616374697628
:1023500061746520616E642064656163746976618F
:102360007465206174207468652073616D652074E4
:10237000696D652E0A0A00426F7468205820262075
:1023800059206C6F636174696F6E73206D7573741F
:10239000206265207370656369666965642E0A0A48
:1023A000003F496E76616C696420677269642073CE
:1023B000697A6520284A29207370656369666965B2
:1023C000642028322D39292E0A0A003F2850296816
:1023D0006173652076616C756520696E76616C69E4
:1023E000642028302D36292E0A0A003F28562965F8
:1023F00072626F7365206C6576656C20696D706CB8
:1024000061757369626C652028302D34292E0A0AA3
:10241000003F285229657065746974696F6E206386
:102420006F756E7420696E76616C69642028312B3B
:10243000292E0A0A00B11DAC1DA71DA21D5D0A00B0
:1024400062656420706C616E65206E6F726D616C88
:10245000203D205B00436F756C64206E6F742063B9
:102460006F6D706C657465204C53462100436F722C
:102470007265637465645F5A3D000A0A002F005458
:10248000696C74696E67206D65736820706F696E22
:102490007420003F4572726F722070726F62696EB5
:1024A0006720706F696E742E2041626F7274696E5E
:1024B00067206F7065726174696F6E2E0A00436FDA
:1024C000727265637465645F5A3D0054696C746927
:1024D0006E67206D6573682028332F33290A004307
:1024E0006F727265637465645F5A3D0054696C7401
:1024F000696E67206D6573682028322F33290A00C2
:10250000436F727265637465645F5A3D0054696C11
:1025100074696E67206D6573682028312F33290A2E
:1025200000646F6E650A00496E737566666963695B
:10253000656E7420646174610A000000204100002F
:1025400066420000D24200801843000048430080E9
:102550007743008093430000204100006642000062
:10256000D242008018430000484300807743008037
:1025700093434578747261706F6C6174696E672003
:102580006D6573682E2E2E0021212053544F50204C
:1025900063616C6C65642062656361757365206F4F
:1025A0006620424C546F756368206572726F7220AA
:1025B0002D20726573746172742077697468204D80
:1025C0003939390A0021212053544F502063616C5E
:1025D0006C65642062656361757365206F66204277
:1025E0004C546F756368206572726F72202D207273
:1025F0006573746172742077697468204D39393954
:102600000A002F2F616374696F6E3A006E6F7469F0
:102610006669636174696F6E2000656E6400486F5F
:1026200074656E6420746F6F20636F6C640A007051
:1026300061757365640050617573650072657375CB
:102640006D6564004469736D6973730052657375D9
:102650006D696E670057616974696E6720666F7295
:10266000206865617475702E0A004C656176696E2C
:102670006720473236003F53706563696669656459
:1026800020582C5920636F6F7264696E61746520E5
:102690006F7574206F6620626F756E64732E0A000A
:1026A0003F28522965706561742076616C756520DC
:1026B0006E6F7420706C61757369626C653B206D20
:1026C000757374206265206174206C656173742079
:1026D000312E0A003F2852296570656174206D759E
:1026E0007374206265207370656369666965642030
:1026F0007768656E206E6F74207573696E672061F0
:102700006E204C43442E0A003F537065636966692E
:102710006564206E6F7A7A6C652074656D70657281
:102720006174757265206E6F7420706C6175736969
:10273000626C652E0A003F53706563696669656463
:102740002066696C616D656E742073697A65206EB0
:102750006F7420706C61757369626C652E0A003F3E
:10276000537065636966696564207072696D652080
:102770006C656E677468206E6F7420706C61757321
:1027800069626C652E0A003F5072696D65206C6548
:102790006E677468206D7573742062652073706550
:1027A000636966696564207768656E206E6F742062
:1027B0007573696E6720616E204C43442E0A003F9A
:1027C000537065636966696564206E6F7A7A6C65BB
:1027D0002073697A65206E6F7420706C61757369FF
:1027E000626C652E0A003F52657472616374696F92
:1027F0006E204D756C7469706C696572206D7573AF
:1028000074206265207370656369666965642E0A69
:10281000003F537065636966696564205265747230
:10282000616374696F6E204D756C7469706C696555
:1028300072206E6F7420706C61757369626C652EA6
:102840000A003F537065636966696564206C61794D
:10285000657220686569676874206E6F7420706C9B
:1028600061757369626C652E0A0043292E0A003F68
:102870005370656369666965642062656420746588
:102880006D7065726174757265206E6F7420706C06
:1028900061757369626C65202834302D00473236CB
:1028A000207374617274696E672E2E2E0A004F4673
:1028B000460A0046616465204865696768742000BF
:1028C000426564204C6576656C696E6720004661E0
:1028D000696C656420746F20656E61626C6520426E
:1028E0006564204C6576656C696E670A00496E7692
:1028F000616C6964206D6573682E0A0076616C698D
:10290000640A53746F7261676520736C6F743A2048
:1029100000696E004D65736820697320003F557330
:1029200065203020746F20003F496E76616C6964C9
:102930002073746F7261676520736C6F742E0A0068
:102940003F454550524F4D2073746F72616765204B
:102950006E6F7420617661696C61626C652E0A002D
:102960004163637572616379204465637265617365
:10297000696E67210044656372656173696E6720E3
:10298000416363757261637920446574656374653E
:10299000642E0A00473238004732385A00416363D8
:1029A00075726163793A2000206F66200044696483
:1029B00020004733342061626F727465642E0A0010
:1029C0004163637572616379204163686965766507
:1029D000640054617267657420616363757261633A
:1029E000792061636869657665642E0A000A5A3247
:1029F0002D5A313D0050726F62696E6720466169E1
:102A00006C65640050726F62696E67206661696C04
:102A100065640A000A473334204974657261746939
:102A20006F6E3A20003F2841296D706C69666963BA
:102A30006174696F6E206F7574206F6620626F75A8
:102A40006E64732028302E352D322E30292E0A0048
:102A50003F285429617267657420616363757261F0
:102A60006379206F7574206F6620626F756E647372
:102A70002028302E30312D312E30292E0A003F28CB
:102A800049297465726174696F6E206F7574206F67
:102A90006620626F756E64732028312D3330292EC5
:102AA0000A0020204D3432322053005A20417574E0
:102AB0006F2D416C69676E0046696E697368656465
:102AC000210A003A207A3A2000206F662000476FE2
:102AD000696E6720746F3A20580043570A002064DB
:102AE00069723A0020616E676C653A0053746172D6
:102AF00074207261646975733A00506F7369746908
:102B00006F6E696E67207468652070726F62652EE3
:102B10002E2E0A003F4C656773206F66206D6F761E
:102B2000656D656E7420696D706C61757369626C3A
:102B3000652028302D3135292E0A003F2028582CB9
:102B40005929206F7574206F6620626F756E6473EB
:102B50002E0A0050726F6265206F7574206F6620B8
:102B6000626F756E6473003F53616D706C652073A6
:102B7000697A65206E6F7420706C61757369626C20
:102B8000652028342D3530292E0A004D3438205A3E
:102B90002D50726F62652052657065617461626963
:102BA0006C69747920546573740A003F285629654E
:102BB00072626F7365206C6576656C20696D706CF0
:102BC00061757369626C652028302D34292E0A00E6
:102BD0005374616E646172642044657669617469DE
:102BE0006F6E3A20002052616E67653A2000204DDA
:102BF00061783A2000204D696E3A200020536967C1
:102C00006D613A20004D65616E3A2000204400203D
:102C1000204D323030205300202844697361626CAB
:102C20006564293A0046696C616D656E7420736550
:102C30007474696E67730020204D32303120580063
:102C40004D617820416363656C65726174696F6E74
:102C50002028756E6974732F7332290020204D323D
:102C600030332058004D6178206665656472617468
:102C700065732028756E6974732F732900205200C4
:102C800020204D323034205000416363656C657202
:102C90006174696F6E2028756E6974732F733229A1
:102CA0002028503C7072696E742D616363656C3EC0
:102CB00020523C726574726163742D616363656C4C
:102CC0003E20543C74726176656C2D616363656C63
:102CD0003E290020540020530020204D3230352062
:102CE0004200416476616E6365642028423C6D69F0
:102CF0006E5F7365676D656E745F74696D655F7532
:102D0000733E20533C6D696E5F66656564726174E5
:102D1000653E20543C6D696E5F74726176656C5FD0
:102D200066656564726174653E20583C6D61785FCC
:102D3000785F6A65726B3E20593C6D61785F795FA0
:102D40006A65726B3E205A3C6D61785F7A5F6A6596
:102D5000726B3E20453C6D61785F655F6A65726BA2
:102D60003E290020440020490020204D33303120EE
:102D70005000486F74656E64205049440020440040
:102D800020490020204D333034205000426564201B
:102D9000504944003F28422961756420726174657E
:102DA00020696D706C61757369626C652E0A002014
:102DB0006261756420726174652073657420746F3C
:102DC00020002053657269616C2000203B00205573
:102DD0000020204D363033204C0046696C616D6513
:102DE0006E74206C6F61642F756E6C6F616400206F
:102DF000286D6D290020496E76616C6964206578C4
:102E0000747275646572200047322F473320626107
:102E10006420706172616D65746572730A00536C31
:102E20006565702E2E2E005A2050726F62652050FC
:102E3000617374204265640A005A2050726F6265A3
:102E400020506173742042656400205A3A200020AB
:102E5000593A200042656420583A20004D65736855
:102E600020706F696E74206F7574206F66207261B8
:102E70006E67650A004D302053746F70004D31202D
:102E800053746F70004E6F204D6F76652E0025696C
:102E9000730025696D2025697300256968202569FF
:102EA0006D202569730025696420256968202569DE
:102EB0006D202569730025697920256964202569BD
:102EC000682025696D20256973006E6F74696669D5
:102ED000636174696F6E20005072696E742074694A
:102EE0006D653A20006F6B006F666600D71DD21DBE
:102EF000CB1DC41DB61D44454255473A004D3131E6
:102F000033205300417274696C6C65727920536987
:102F1000646577696E646572205831204F46462E8D
:102F2000002F2F005741524E494E4721204C6F77BA
:102F3000205A204A65726B206D6179206C6561644E
:102F400020746F20756E77616E7465642070617592
:102F50007365732E0A002058003B200020204D612D
:102F6000783A2000200020204D696E3A2000203B56
:102F7000200020204D32313120530046523A0020AB
:102F8000466C6F773A20003A200020536572766FC6
:102F90002000206F7574206F662072616E67650A6D
:102FA00000536572766F200050726F6265204F6625
:102FB00066736574205A0050726F6265204F6666B2
:102FC000736574205A0064697300656E0043290AB2
:102FD0000061626C656420286D696E2074656D7097
:102FE0002000436F6C64206578747275646573208B
:102FF00061726520004D65736820706F696E742082
:103000006F7574206F662072616E67650A004D34BB
:10301000323120696E636F72726563742070617201
:10302000616D657465722075736167650A004F662E
:103030006673657473204170706C69656400546FC9
:103040006F206661722066726F6D207265666572B0
:10305000656E636520706F696E740A004545505255
:103060004F4D204F4B0A00290A0020746F20003F6B
:103070005A206F7574206F662072616E6765202814
:1030800000290A0020746F20003F59206F757420BA
:103090006F662072616E676520282D00290A002066
:1030A000746F20003F58206F7574206F6620726126
:1030B0006E676520282D002E0A002028302D313023
:1030C00029002076616C7565206F7574206F66200D
:1030D00072616E676500416476616E6365204B3D89
:1030E000003F285929206F7574206F6620626F7524
:1030F0006E64732E0A003F285829206F7574206F64
:103100006620626F756E64732E0A003F2853292073
:1031100050726F62652D706F736974696F6E20698C
:103120006E64657820696E76616C69642E0A003F72
:103130002853292069732072657175697265642E40
:103140000A006F6B0020204D323036205800486F47
:103150006D65206F666673657400446966663A2023
:1031600020200046726F6D5374703A00537465707E
:103170007065723A00556E4C6576656C3A004C6528
:1031800076656C65643A005261773A202020200011
:103190000A4C6F676963616C3A00436F756E742007
:1031A000453A004361703A007D002C7A3A002C7950
:1031B0003A007D2C6D61783A7B783A002C7A3A009F
:1031C0002C793A007D7D2C776F726B3A7B6D696E3E
:1031D0003A7B783A002C7A3A002C793A007D2C6DB3
:1031E00061783A7B783A002C7A3A002C793A00617F
:1031F0007265613A7B66756C6C3A7B6D696E3A7B81
:10320000783A004D4541545041434B00434F4F4C99
:1032100045525F54454D5045524154555245004327
:1032200048414D4245525F54454D504552415455D9
:10323000524500424142595354455050494E47006F
:1032400041524353004D4F54494F4E5F4D4F4445FB
:103250005300544845524D414C5F50524F544543E2
:1032600054494F4E004C4F4E475F46494C454E41E6
:103270004D45004155544F5245504F52545F5344B1
:103280005F5354415455530053445F57524954457A
:10329000005245504541540053444341524400506C
:1032A000524F4D50545F535550504F525400484F59
:1032B00053545F414354494F4E5F434F4D4D414E30
:1032C000445300454D455247454E43595F50415286
:1032D00053455200434153455F4C494748545F4270
:1032E00052494748544E45535300544F47474C4565
:1032F0005F4C494748545300534F46545741524539
:103300005F504F574552004255494C445F5045521B
:1033100043454E54004C4556454C494E475F444149
:103320005441005A5F50524F42450052554E4F553E
:1033300054004155544F4C4556454C005052494E4F
:10334000545F4A4F420050524F4752455353004139
:1033500055544F5245504F52545F54454D500041C3
:1033600055544F5245504F52545F504F5300564F93
:103370004C554D455452494300454550524F4D0020
:1033800042494E4152595F46494C455F5452414E65
:10339000534645520053455249414C5F584F4E5F8A
:1033A000584F4646004649524D574152455F4E419F
:1033B0004D453A4D61726C696E20322E302E392E99
:1033C00032202D20444947412D54656368204153E4
:1033D0005758312076312E3020284F637420203505
:1033E00020323032312031353A30353A32342920EA
:1033F000534F555243455F434F44455F55524C3AF6
:103400006769746875622E636F6D2F4D61726C69A8
:103410006E4669726D776172652F4D61726C696E6F
:103420002050524F544F434F4C5F56455253494FD3
:103430004E3A312E30204D414348494E455F545954
:1034400050453A417274696C6C65727920536964B5
:103450006577696E6465722058312045585452551D
:103460004445525F434F554E543A312055554944D7
:103470003A63656465326132662D343161322D34D0
:103480003734382D396231322D6335356336326643
:1034900033363766660A00203B0020204D38353130
:1034A0002058005A2D50726F6265204F6666736512
:1034B000740042656420436F6F6C696E672E2E2E18
:1034C000004265642048656174696E672E2E2E0087
:1034D00023646566696E652044454641554C545FDA
:1034E0000000626564004B6420004B6920004B7053
:1034F0002000504944204175746F74756E652066D4
:10350000696E6973686564212050757420746865FC
:10351000206C617374204B702C204B6920616E64A9
:10352000204B6420636F6E7374616E7473206672D7
:103530006F6D2062656C6F7720696E746F20436FCA
:103540006E66696775726174696F6E2E680A0050E5
:103550004944204175746F74756E65206661696CAD
:103560006564212074696D656F75740A0050494463
:10357000204175746F74756E65206661696C656451
:10358000212054656D706572617475726520746F69
:103590006F20686967680A00204B643A2000204B5E
:1035A000693A2000204B703A200020436C6173730D
:1035B000696320504944200A00204E6F206F7665D1
:1035C0007273686F6F740A002054753A2000204BA4
:1035D000753A2000206D61783A2000206D696E3ABE
:1035E000200020643A200020626961733A20005074
:1035F0004944204175746F74756E652073746172EF
:10360000740A00504944204175746F74756E6520CA
:103610006661696C6564212054656D7065726174C2
:1036200075726520746F6F20686967680A00504979
:1036300044204175746F74756E6500504944204193
:1036400075746F74756E65206661696C65642120A0
:10365000426164206865617465722069640A00488B
:103660006F6D696E67204661696C6564006F706597
:103670006E00545249474745524544003A20007A6B
:103680005F70726F6265007A5F6D696E00795F6D61
:10369000696E00785F6D696E005265706F72746953
:1036A0006E6720656E6473746F70207374617475D7
:1036B000730A0020746F6F206C6F6E6720657874DA
:1036C000727573696F6E2070726576656E7465646D
:1036D0000A0020636F6C6420657874727573696F7B
:1036E0006E2070726576656E7465640A00486F6D51
:1036F0006520257325732573204669727374000055
:103700000040C0000040C0000000005761726E69B8
:103710006E673A20486F6D696E672042756D702044
:1037200044697669736F72203C20310A00020204FA
:1037300000009A4300009A430000C8430000A040E4
:103740000000A040000000400080984300809843A3
:103750000000C843000040C0000040C0000000005E
:1037600053657474696E67732053746F7265640077
:10377000290A002062797465733B2063726320001C
:1037800053657474696E67732053746F7265642037
:1037900028004D65736820736176656420696E202A
:1037A000736C6F7420003F556E61626C6520746F9E
:1037B0002073617665206D65736820646174612E85
:1037C0000A0020736C6F743D00206D65736865732B
:1037D0005F656E643D004532454E443D00206D6599
:1037E000736820736C6F747320617661696C6162B9
:1037F0006C652E0A003F496E76616C696420736CBB
:103800006F742E0A004D657368206C6F6164656487
:103810002066726F6D20736C6F7420003F556E616F
:10382000626C6520746F206C6F6164206D657368D5
:1038300020646174612E0A0048617264636F64657C
:10384000642044656661756C742053657474696E98
:103850006773204C6F616465640A00203B204C65EF
:1038600076656C696E67200020204D34323020531D
:1038700000556E696669656420426564204C657612
:10388000656C696E670020204D393030204B004C4C
:10389000696E65617220416476616E636500206DBA
:1038A00065736865732E0A0A00454550524F4D20D6
:1038B00063616E20686F6C64200041637469766593
:1038C000204D65736820536C6F74200020204D31AB
:1038D00034392043203B20556E69747320696E2073
:1038E00043656C736975730A0054656D7065726128
:1038F0007475726520556E697473002020473231EB
:10390000203B004C696E65617220556E69747300CE
:103910003F4D65736820746F6F2062696720666F22
:103920007220454550524F4D2E0A00454550524F8A
:103930004D206461746173697A65206572726F727B
:103940002E0A00454550524F4D2056657273696FDF
:103950006E204572726F7200454550524F4D20499E
:103960006E646578204572726F7200454550524F03
:103970004D20435243204572726F720055424C20D5
:1039800072657365740A00206C6F616465642066FB
:10399000726F6D2073746F726167652E0A004D65DA
:1039A00073682000290A002062797465733B2063E4
:1039B000726320002073746F726564207365747481
:1039C000696E677320726574726965766564202814
:1039D00000202863616C63756C6174656429210A39
:1039E0000020213D2000454550524F4D2043524379
:1039F000206D69736D61746368202D202873746F66
:103A00007265642920002053697A653A2000496E66
:103A10006465783A200000004843000048430000F5
:103A2000A04100002042F43DA042F43DA04296E3B4
:103A3000C7430080DE43D0070000D00700006400C9
:103A4000000010270000204D61726C696E3D5638F1
:103A500035290A00454550524F4D207665727369ED
:103A60006F6E206D69736D617463682028454550E1
:103A7000524F4D3D0024F4D43050C38E20C2A2409A
:103A800017828B7011127A910D816CD90AA861E1AD
:103A900008C7586607615143061E4B5D05C145A71F
:103AA000041A411104093D9803713931034036DB92
:103AB0000265339102D4305402802E1D02632CEE35
:103AC00001752AC501B028A001102781018F256446
:103AD000012B244B01E0223401AC211F018D200D6C
:103AE00001801FFC00841EED00971DDF00B81CD272
:103AF00000E61BC600201BBC00641AB200B219A865
:103B0000000A19A0006A189900D117910040178B7C
:103B100000B516840031167E00B31579003A15738E
:103B200000C7146F0058146A00EE13660088136310
:103B30000025135E00C7125B006C1257001512546B
:103B400000C111510070114F0021114B00D61049D6
:103B5000008D1047004610440002104200C00F4084
:103B600000800F3E00420F3C00060F3B00CB0E389A
:103B700000930E37005C0E3500270E3400F30D3233
:103B800000C10D3100900D3000600D2E00320D2D62
:103B900000050D2C00D90C2B00AE0C2900850C293A
:103BA000005C0C2700350C27000E0C2600E80B24C7
:103BB00000C40B2400A00B23007D0B23005A0B2113
:103BC00000390B2100180B2000F80A1F00D90A1E2B
:103BD00000BB0A1E009D0A1D00800A1D00630A1C0E
:103BE00000470A1B002C0A1B00110A1A00F7091AC9
:103BF00000DD091900C4091900AB09190092091761
:103C0000007B091800630917004C091600360916D5
:103C100000200916000A091500F5081500E008142F
:103C200000CC081400B8081400A40814009008136D
:103C3000007D0812006B0813005808120046081295
:103C400000340811002308110012081100010811A6
:103C500000F0071000E0071000D0071000C00710A8
:103C600000B0070F00A107100091070E0083070F97
:103C70000074070F0065070E0057070E0049070E76
:103C8000003B070D002E070E0020070D0013070D47
:103C90000006070D00F9060C00ED060D00E0060C0D
:103CA00000D4060C00C8060C00BC060C00B0060CC4
:103CB00000A4060B0099060C008D060B0082060B73
:103CC0000077060B006C060B0061060A0057060B16
:103CD000004C060A0042060A0038060A002E060AB0
:103CE0000024060A001A060A001006090007060A40
:103CF00000FD050900F4050900EB050900E20509CE
:103D000000D9050900D0050900C7050900BE05094D
:103D100000B5050800AD050800A50509009C0508CB
:103D200000940508008C050800840508007C05083F
:103D300000740508006C050700650508005D0507AF
:103D400000560508004E0507004705070040050816
:103D50000038050700310507002A0507002305077D
:103D6000001C050600160507000F050700080506DC
:103D70000002050700FB040600F5040700EE040638
:103D800000E8040600E2040700DB040600D5040690
:103D900000CF040600C9040600C3040600BD0406E3
:103DA00000B7040600B1040500AC040600A6040632
:103DB00000A00405009B040600950405009004067D
:103DC000008A04050085040500800406007A0405C5
:103DD0000075040500700405006B04050066040509
:103DE00000610405005C0405005704050052040549
:103DF000004D04050048040500430405003E04048A
:103E0000003A04050035040500300404002C0405C4
:103E10000027040400230405001E0404001A0404FF
:103E20000016040500110404000D04040009040533
:103E3000000404040000040400FC030400F803046C
:103E400000F4030400F0030400EC030400E803049E
:103E500000E4030400E0030400DC030400D80304CE
:103E600000D4030400D0030400CC030400C80303FF
:103E700000C503030024F404D9201BC40C5C0E9875
:103E800004C4095F0265077101F405F900FB04B37E
:103E90000048048700C10369005803550003034527
:103EA00000BE023A008402310053022A0029022592
:103EB0000004022000E4011C00C8011900AF011732
:103EC00000980114008401130071011000610110B9
:103ED0000051010E0043010D0036010B002B010BB8
:103EE0000020010B00150109000C01090003010865
:103EF00000FB000800F3000800EB000700E40006E8
:103F000000DE000600D8000600D2000600CC000546
:103F100000C7000500C2000500BD000400B9000490
:103F200000B5000400B1000400AD000400A90004C5
:103F300000A5000300A20003009F0004009B0003F3
:103F40000098000300950002009300030090000316
:103F5000008D0002008B0003008800020086000232
:103F60000084000300810002007F0002007D000247
:103F7000007B000200790002007700010076000259
:103F8000007400020072000100710002006F000264
:103F9000006D0001006C0002006A0001006900026F
:103FA0000067000100660001006500010064000276
:103FB000006200010061000100600001005F00027A
:103FC000005D0001005C0001005B0001005A00017F
:103FD000005900010058000100570001005600017F
:103FE000005500010054000100530000005300017F
:103FF000005200010051000100500001004F00017B
:10400000004E0000004E0001004D0001004C000178
:10401000004B0000004B0001004A00010049000174
:104020000048000000480001004700010046000071
:104030000046000100450000004500010044000169
:104040000043000000430001004200000042000164
:10405000004100000041000100400001003F00005D
:10406000003F0001003E0000003E0001003D000056
:10407000003D0001003C0000003C0000003C00014D
:10408000003B0000003B0001003A0000003A000144
:10409000003900000039000100380000003800003D
:1040A0000038000100370000003700010036000032
:1040B0000036000000360001003500000035000029
:1040C000003500010034000000340000003400011D
:1040D0000033000000330000003300010032000014
:1040E0000032000000320001003100000031000009
:1040F00000310001003000000030000000300001FD
:10410000002F0000002F0000002F0000002F0001F2
:10411000002E0000002E0000002E0001002D0000E7
:10412000002D0000002D0000002D0001002C0000DB
:10413000002C0000002C0000002C0001002B0000CF
:10414000002B0000002B0000002B0001002A0000C3
:10415000002A0000002A0000002A000100290000B7
:1041600000290000002900000029000000290001AA
:10417000002800000028000000280000002800009F
:104180000028000100270000002700000027000091
:104190000027000000270001002600000026000084
:1041A0000026000000260000002600010025000077
:1041B000002500000025000000250000002500006B
:1041C000002500010024000000240000002400005D
:1041D0000024000000240001002300000023000050
:1041E0000023000000230000002300000023000043
:1041F0000023000100220000002200000022000035
:104200000022000000220000002200010021000026
:10421000002100000021000000210000002100001A
:10422000002100000021000100200000002000000B
:1042300000200000002000000020000000200000FE
:104240000020000000200001001F0000001F0000EF
:10425000001F0000001F0000001F0000001F0000E2
:10426000001F0001001E0000001E0000001E0000D4
:10427000001E000000C23100001C260000F41900DE
:1042800000D80F0000EB080000C004000075020019
:10429000004001000020436F756E7420583A000002
:1042A0004500626564002C2073797374656D20731A
:1042B000746F7070656421204865617465725F4930
:1042C000443A200048656174696E67204661696CF4
:1042D00065640048656174696E67206661696C6534
:1042E00064004D3131322053687574646F776E000D
:1042F0004572723A204D415854454D50004D415839
:1043000054454D5020747269676765726564004555
:1043100072723A204D494E54454D50004D494E540D
:10432000454D502074726967676572656400544832
:1043300045524D414C2052554E4157415900546809
:1043400065726D616C2052756E6177617900202F06
:10435000002042403A0020403A0020573A002057BF
:104360003A002053004D313036205000496E7661BE
:104370006C69642065787472756465720A007001F6
:104380002C0190012701B0012201C0011D01F001A3
:1043900018011002130130020E016002090190029F
:1043A0000401C002FF000003FA004003F50080038F
:1043B000F000D003EB002004E6007004E100E0040C
:1043C000DC004005D700C005D2004006CD00D00675
:1043D000C8008007C3003008BE00F008B900C0095B
:1043E000B400B00AAF00B00BAA00D00CA500000EBC
:1043F000A000500F9B00C0109600501291000014B6
:104400008C00C0158700B0178200B0197D00D01B4A
:104410007800001E730040206E0090226900F02496
:10442000640040275F0090295A00E02B5500102EB1
:10443000500020304B0010324600E03341009035F0
:104440003C001037370070383200A0392D00B03AE8
:104450002800A03B2300603C1E00103D1900903D49
:104460001400103E0F00703E0A00C03E0500003FE1
:104470000000403FFBFF803FF6FFC03FF1FF2020E0
:10448000506C616E6E6572427566666572427974D3
:1044900065733A20002046726565204D656D6F7228
:1044A000793A200020436F6D70696C65643A204F43
:1044B000637420203520323032310A00204C617381
:1044C0007420557064617465643A20323032312D45
:1044D00030392D3033207C20417574686F723A205A
:1044E00028444947412D546563682C20415357584F
:1044F000312076312E30290A004D61726C696E20B0
:10450000322E302E392E320A0020536F66747761B6
:1045100072652052657365740A0020576174636880
:10452000646F672052657365740A002042726F776A
:104530006E206F75742052657365740A002045788B
:104540007465726E616C2052657365740A00506FF9
:1045500077657255700A0073746172740A00205096
:104560003A00205A3A0020593A0020583A00656E25
:104570006473746F7073206869743A200000000AD5
:104580000B02090C0D0E08070304010000000000D7
:10459000000000000000000000000000000000001B
:1045A00000000000000000000012111000000000D8
:1045B00000000000000000000000000000000000FB
:1045C000000000FFFFFF53656E64204D313038203E
:1045D000746F20726573756D650A00496E7365723C
:1045E000742066696C616D656E7420616E64207301
:1045F000656E64204D3130380A005265686561741B
:1046000020446F6E6500526568656174696E672E3F
:104610002E2E00526568656174004865617465728C
:104620002054696D656F75740053656E64204D315B
:10463000303820746F2068656174206E6F7A7A6CF0
:10464000650A004E6F7A7A6C65205061726B656402
:104650000070726F6D70745F0073686F77006275C1
:1046600074746F6E00626567696E0050757267657D
:104670004D6F72650050617573656400436F6E74B1
:10468000696E7565004C6F61642046696C616D658B
:104690006E74205400496E736572742066696C6193
:1046A0006D656E7420616E642073656E64204D319B
:1046B00030380A0020746F6F206C6F6E6720657849
:1046C00074727573696F6E2070726576656E74654D
:1046D000640A0020636F6C64206578747275736976
:1046E0006F6E2070726576656E7465640A00220ACA
:1046F00000556E6B6E6F776E20636F6D6D616E64CB
:104700003A202200204500205A0020590020204D48
:1047100039322058005374657073207065722075AB
:104720006E6974006F6B0A00526573656E643A209F
:104730000000002200250028002B002E003100344C
:104740000002010000050108010B01000021002406
:104750000027002A002D0030003300010100000472
:104760000107010A010505050507050808080802F3
:104770000202020A0A0808040404040101010101FA
:104780000101010303030303030303040707070CE9
:104790000C0C0C0C0C0C0C0202020206060606069F
:1047A0000606060B0B0B0B0B0B0B0B01021020204C
:1047B0000808102040102040800201020108040275
:1047C00001010204081020408080402010080402EB
:1047D0000180040201804020100804020108040244
:1047E000010102040810204080010204081020404A
:1047F0008020453A00205A3A0020593A00583A00A1
:10480000706F7765726F6666005072696E7465725C
:104810002068616C7465642E206B696C6C2829209B
:1048200063616C6C6564210A0000BDF411241FBE35
:10483000CFEFD1E2DEBFCDBF00E00CBF13E0A0E0C0
:10484000B2E0EEEAF2E102E00BBF02C007900D9287
:10485000AA39B107D9F724E1AAE9B3E001C01D9252
:10486000AC34B207E1F714E2C6E1D4E200E006C0DE
:1048700021970109802FFE010F941E05C531D10734
:1048800080E00807A9F70E947DF50D9455090C9466
:104890000000AF92BF92CF92DF92EF92FF920F9300
:1048A0001F93CF93DF93CCE7D1E10CE11CE08CE8C0
:1048B000A82E81E1B82EC12CD12C7601C394699128
:1048C0007991899199910E947BFE288939894A8939
:1048D0005B890E94DCFE0F947006F801619371936E
:1048E000819391938F01C616D706E806F90610F456
:1048F0006B017C01AC16BD0611F76FEF7FEFCB01AA
:10490000A70196010F94A10420932C0C30932D0C39
:1049100040932E0C50932F0CDF91CF911F910F914C
:10492000FF90EF90DF90CF90BF90AF900895CF921F
:10493000DF92EF92FF9280915805882309F457C0C7
:10494000C0905405D0905505E0905605F09057055D
:1049500020E030E0A901C701B6010E9477FE88235C
:1049600009F445C020E030E040E05FE3C701B60154
:104970000E94DCFE9B01AC010E94DCFE2BED3FE0BF
:1049800049E450E40E94DCFE9B01AC0160E070E071
:1049900080E89FE30F9403066B017C01C0927104D1
:1049A000D0927204E0927304F092740460911C023D
:1049B00070911D02072E000C880B990B0E947DFE42
:1049C0002AE037ED43E25CE30E94DCFEA70196019A
:1049D0000E94DCFE60935B0270935C0280935D0238
:1049E00090935E02FF90EF90DF90CF900895C12CDE
:1049F000D12C80E8E82E8FE3F82ED0CF0F931F93B1
:104A0000E62FDC01FC910F2F10E030E020E0062EB5
:104A100004C036952795179507950A94D2F700FF9D
:104A20001CC00091640410E030E020E004C0369522
:104A30002795179507956A95D2F700FF0EC041E0BC
:104A400050E060E070E004C0440F551F661F771F00
:104A5000EA95D2F740954F234C931F910F910895FB
:104A6000CF93DF9324E0829FC0011124EC01C35552
:104A7000DD4EFC01E252FA4F8B599B4FDC012D9128
:104A80003D914D915C9160817181828193810F9400
:104A90002705688379838A839B83DF91CF9108956B
:104AA000CF93DF931F92CDB7DEB7898360E0CE014D
:104AB0000196A4DF61E0CE010196A0DF62E0CE01A5
:104AC00001969CDF89810F90DF91CF9108958091AD
:104AD000600490916104A0916204B091630480939A
:104AE000570290935802A0935902B0935A028091B2
:104AF0005E0490915F04909356028093550208954E
:104B00008091570290915802A0915902B0915A0297
:104B10008093600490936104A0936204B093630453
:104B2000809155029091560290935F0480935E04A9
:104B300084E690E0909356028093550208954F9238
:104B40005F926F927F928F929F92AF92BF92CF921D
:104B5000DF92EF92FF92CF93DF93CDB7DEB76E97E0
:104B60000FB6F894DEBF0FBECDBF9E8F8D8FFC01B8
:104B7000C4A8D5A8E6A8F7A820E030E0A901C7019D
:104B8000B6010E9477FE882309F497C1A701960118
:104B900060E070E080E89FE30F9403066B017C0106
:104BA000ED8DFE8D20813181428153810E94DCFE9A
:104BB0006D837E838F839887ED8DFE8D2481358173
:104BC00046815781C701B6010E94DCFE2B013C01E2
:104BD000ED8DFE8D2485358546855785C701B60147
:104BE0000E94DCFE4B015C012D813E814F81588586
:104BF000CA01B9010E94DCFE9B01AC01C501B401F0
:104C00000F942605698B7A8B8B8B9C8BED8DFE8D9B
:104C10002089318942895389C701B6010E94DCFE8F
:104C20004B015C01A3019201C301B2010E94DCFEB1
:104C30009B01AC01C501B4010F9426056D8B7E8BE1
:104C40008F8B988FED8DFE8D248935894689578904
:104C5000C701B6010E94DCFE4B015C01A301920179
:104C60006D817E818F8198850E94DCFE9B01AC0165
:104C7000C501B4010F94260569837A838B839C83D5
:104C80002D893E894F89588D69897A898B899C89BC
:104C90000E94DCFE4B015C0129813A814B815C81E1
:104CA000CA01B9010E94DCFE9B01AC01C501B4013F
:104CB0000F94260569877A878B879C8720E030E0F0
:104CC000A9010F944D0789849A84AB84BC8487FF23
:104CD00004C0B7FAB094B7F8B094ED8DFE8D24A15E
:104CE00035A146A157A160A171A182A193A10F9402
:104CF00027052FEF36EE4BED5EE20E94DCFEA501AC
:104D000094010F944D0787FFD8C0ED8DFE8D20854F
:104D1000318542855385C701B6010E94DCFE6D874F
:104D20007E878F87988BED8DFE8D248D358D468DFA
:104D3000578DC701B6010E94DCFE4B015C012D8539
:104D40003E854F855889C301B2010E94DCFE9B015C
:104D5000AC01C501B4010F9426054B015C01ED8D3A
:104D6000FE8D208D318D428D538DC701B6010E947D
:104D7000DCFE6B017C012D853E854F8558896D8158
:104D80007E818F8198850E94DCFE9B01AC01C7016A
:104D9000B6010F942605698F7A8F8B8F9C8FA501A2
:104DA000940169817A818B819C810E94DCFE6B0178
:104DB0007C01298D3A8D4B8D5C8D6D897E898F8923
:104DC000988D0E94DCFE9B01AC01C701B6010F94D7
:104DD000260529853A854B855C850F9403066B0172
:104DE0007C01ED8DFE8DC0A6D1A6E2A6F3A6298D8D
:104DF0003A8D4B8D5C8D69817A818B819C810E947B
:104E0000DCFE69837A838B839C83A5019401698985
:104E10007A898B899C890E94DCFE9B01AC016981A7
:104E20007A818B819C810F94260529853A854B8553
:104E30005C850F9403064B015C01ED8DFE8D84A60D
:104E400095A6A6A6B7A62D813E814F815885C7019C
:104E5000B6010E94DCFE2D853E854F8558890F9452
:104E600027056B017C01A3019201C501B4010E94D9
:104E7000DCFE9B01AC01C701B6010F9427059058D9
:104E8000ED8DFE8D60AB71AB82AB93AB90E080E0BB
:104E90006E960FB6F894DEBF0FBECDBFDF91CF91F7
:104EA000FF90EF90DF90CF90BF90AF909F908F904A
:104EB0007F906F905F904F90089581E090E0E8CFF1
:104EC00090E080E00895282F90911D04833021F414
:104ED00095FD0FC094FD0FC0892F90E0B0E0A0E0D9
:104EE00004C0B695A795979587952A95D2F78170B6
:104EF000089581E0089580E008958091380484FD4C
:104F00000BC080913A0487FD07C090913B049370D9
:104F100081E019F480E0089581E00895FC01659135
:104F200075918591949108950F931F9301E010E07E
:104F300020E030E0082E04C0000F111F221F331F95
:104F40000A94D2F7409118045091190460911A0400
:104F500070911B04402B512B622B732B4093180430
:104F60005093190460931A0470931B0490911302D8
:104F7000891303C081E0809375111F910F910895EB
:104F8000282F809313028032D8F480911C042817B4
:104F900024F081E0820F80931C048091180490918A
:104FA0001904A0911A04B0911B0404C0B695A795EA
:104FB000979587952A95D2F78170809375110895FA
:104FC0001092751108958F929F92AF92BF92CF92D7
:104FD000DF92EF92FF92CF93DF93EC018090460532
:104FE00090904705A0904805B090490520E030E03A
:104FF000A901C501B4010E9477FE882309F454C0B9
:10500000C880D980EA80FB80A7019601C501B40160
:105010000E9477FE18160CF04CC02091E6033091E8
:10502000E7034091E8035091E903C701B6010E94EC
:1050300077FE882331F1C092E603D092E703E09235
:10504000E803F092E9032091E2033091E3034091F9
:10505000E4035091E503688179818A819B810E94F4
:10506000DCFE9B01AC0160E070E080E89FE30F9400
:1050700026056093000270930102809302029093D0
:1050800003026091000270910102809102029091EE
:105090000302DF91CF91FF90EF90DF90CF90BF9010
:1050A000AF909F908F90089560E070E080E89FE35C
:1050B000F0CF60E070E0CB01ECCF840F911DFC01DC
:1050C000808190E0B0E0A0E004C0B695A7959795E8
:1050D00087956A95D2F781700895FC012081261783
:1050E000170611F00CF0608308954F925F926F9253
:1050F0007F928F929F92AF92BF92CF92DF92EF9268
:10510000FF920F931F93CF93DF93C82F062F542E38
:10511000622EE62EF12C37E0732EC82ED12CF7012B
:10512000789EE00DF11D1124EE0FFF1FEE0FFF1F03
:10513000EE57FB4F60817181828193819B01AC01AD
:105140000F942908882309F47AC0C50D0C2E000C91
:10515000DD0B060D002E000C110B7C9EF0017D9ED8
:10516000F00D1124E00FF11FEE0FFF1FEE0FFF1FD8
:10517000EE57FB4F80809180A280B380A5019401FF
:10518000C501B4010F942908811159C0C50DD11D65
:1051900057FCDA957C9EF0017D9EF00D1124060DE2
:1051A000111D67FC1A95E00FF11FEE0FFF1FEE0FA8
:1051B000FF1FEE57FB4F4080518062807380A30138
:1051C0009201C301B2010F942908811138C0A301D3
:1051D0009201C501B4010E9477FE87FD0CC0A501B4
:1051E0009401C501B4010F942705A30192010F9406
:1051F00026054B015C0187E08C9DF0018D9DF00D33
:105200001124EE0DFF1DEE0FFF1FEE0FFF1FEE57D7
:10521000FB4F80829182A282B38281E0DF91CF91A5
:105220001F910F91FF90EF90DF90CF90BF90AF90C4
:105230009F908F907F906F905F904F90089580E047
:10524000EDCF8F929F92AF92BF92CF92DF92EF926B
:10525000FF920F931F93CF93DF9385E3E82E84E2B1
:10526000F82E9DE3C92E94E2D92EF70185919491F1
:10527000FC01A4903296B4903197C4913296049177
:105280000496FC0184918823F1F088248A94AC165A
:1052900014F488248394002E000C110B0C2E000CA7
:1052A000DD0BB016110669F19A2C9C161D0649F00B
:1052B00020E0482D6B2D892D18DF811102C0980C3C
:1052C000F4CFB394EECF88248A94B01614F48824D3
:1052D00083940C2E000CDD0B002E000C110BAC1671
:1052E0001D0679F09B2C9016110649F0282D40E000
:1052F000692D8A2DFADE811102C0980CF4CFA39497
:10530000EECFF2E0EF0EF11CCE14DF0409F0ADCFCA
:10531000DF91CF911F910F91FF90EF90DF90CF9091
:10532000BF90AF909F908F9008954F925F926F9231
:105330007F928F929F92AF92BF92CF92DF92EF9225
:10534000FF920F931F93CF93DF934090D30350901E
:10535000D4036090D5037090D60302E814E0C7E050
:105360007801D7E0F70181909190A190B1907F01F1
:10537000A5019401C501B4010F94290881110FC042
:105380006701F4E0CF1AD108A5019401C301B2016D
:105390000F942705F6016083718382839383D15034
:1053A00009F7C150045E1F4FC111DACFDF91CF91D1
:1053B0001F910F91FF90EF90DF90CF90BF90AF9033
:1053C0009F908F907F906F905F904F9008958F92F5
:1053D0009F92AF92BF92CF92DF92EF92FF920F9384
:1053E0001F93CF93DF93EC017B018A016901FB01DD
:1053F0002081318142815381688179818A819B81B9
:105400000F942705688379838A839B83F801208121
:105410003181428153816C817D818E819F810F9486
:1054200027056C837D838E839F83F60120813181E4
:1054300042815381688579858A859B850F942705EC
:10544000688779878A879B87F7016081718182816C
:1054500093819B01AC010E94DCFE9B01AC016C8539
:105460007D858E859F850F9427056C877D878E8728
:105470009F87F80160817181828193819B01AC01DA
:105480000E94DCFE9B01AC01688979898A899B892D
:105490000F942705688B798B8A8B9B8BF801208171
:1054A000318142815381F7016081718182819381D1
:1054B0000E94DCFE9B01AC016C897D898E899F89ED
:1054C0000F9427056C8B7D8B8E8B9F8BF601208133
:1054D000318142815381F7016081718182819381A1
:1054E0000E94DCFE9B01AC01688D798D8A8D9B8DBD
:1054F0000F942705688F798F8A8F9B8FF601208103
:10550000318142815381F80160817181828193816F
:105510000E94DCFE9B01AC016C8D7D8D8E8D9F8D7C
:105520000F9427056C8F7D8F8E8F9F8F88A099A0F9
:10553000AAA0BBA0F701C080D180E280F38020E068
:1055400030E0A901C701B6010F944D0787FF04C0E1
:10555000F7FAF094F7F8F094A7019601B401C501A9
:105560000E9477FE87FD02C064017501C8A2D9A21E
:10557000EAA2FBA28CA09DA0AEA0BFA0F801C080B3
:10558000D180E280F38020E030E0A901C701B601BC
:105590000F944D0787FF04C0F7FAF094F7F8F094E2
:1055A000A7019601B401C5010E9477FE87FD02C0E4
:1055B00064017501CCA2DDA2EEA2FFA220E030E0E2
:1055C00040E85FE36CA97DA98EA99FA90F942705E8
:1055D0006CAB7DAB8EAB9FABDF91CF911F910F91E9
:1055E000FF90EF90DF90CF90BF90AF909F908F9003
:1055F00008952FEB280F2A3108F047C0E22FF0E082
:105600008091380490913904A0913A04B0913B0400
:1056100004C0B695A795979587952A95D2F780FDF2
:1056200002C081700895E25EFB4FE081EE2341F1FC
:1056300080917A1190917B11E80FF92FF11D8081F3
:1056400090ED980F9A3030F08E3251F48181805372
:105650008A3098F4F0931504E093140481E00895DF
:105660008D3211F08B3249F4818190ED980F9A3090
:1056700088F38E3211F48281EACFF0E0E0E0EACFE5
:105680001092150410921404E9CF80E00895B1DF60
:10569000882341F081E02091140430911504232BDC
:1056A00009F480E00895CF92DF92EF92FF92E091AB
:1056B0001713F091181320E030E040E450E46481C7
:1056C0007581868197810F9426056B017C0120E00E
:1056D00030E040E251E40E9477FE87FF06C0C12C13
:1056E000D12C80E2E82E81E4F82EC701B601FF90AC
:1056F000EF90DF90CF900895CF92DF92EF92FF92DC
:10570000E0911713F091181320E030E848E953E4D2
:1057100060817181828193810F9427056B017C01E7
:1057200020E030E843E953E40F944D0718163CF4A9
:10573000C12C80E8D82E83E9E82E83E4F82EC70137
:10574000B601FF90EF90DF90CF900895CF92DF9257
:10575000EF92FF92E0911713F091181320E030E0E0
:1057600040E450E460817181828193810F94260529
:105770006B017C0120E030E040E251E40E9477FEC2
:1057800087FF06C0C12CD12C80E2E82E81E4F82EE0
:10579000C701B601FF90EF90DF90CF900895089574
:1057A0004F925F926F927F928F929F92AF92BF9231
:1057B000CF92DF92EF92FF92CF93DF9300D000D091
:1057C000CDB7DEB73C01DB01CD90DD90ED90FC90D4
:1057D000E0911713F0911813FE83ED838481958176
:1057E000A681B78189839A83AB83BC839C01AD0179
:1057F000C701B6010F9426054B015C0123EA31E095
:1058000040E450EC0F944D0787FD8AC023E030E858
:1058100048E953E4C501B4010E9477FE18160CF460
:105820007FC0F30180809180A280B380AD81BE8172
:105830002D913D914D915C91C501B4010F942605C8
:105840002B013C0123EA31E040E450EC0F944D077A
:1058500087FD66C023E030E848E953E4C301B201A4
:105860000E9477FE18160CF45BC070DF27E137EB5F
:1058700041ED58E30F9426059B01AC01C501B4012D
:105880000F944D0787FD4CC037DF27E137EB41ED23
:1058900058E30F9427059B01AC01C501B4010E9498
:1058A00077FE18160CF43CC0FEDE27E137EB41ED25
:1058B00058E30F9426059B01AC01C701B6010F9474
:1058C0004D0787FD2DC020E030E848E953E46981A9
:1058D0007A818B819C810F9427054B015C0120E02C
:1058E00030E843E953E40F944D0718163CF4812C3B
:1058F00080E8982E83E9A82E83E4B82E27E137EBC1
:1059000041ED58E3C501B4010F9427059B01AC019B
:10591000B1E0B983C701B6010E9477FE18160CF4F6
:105920001982898126960FB6F894DEBF0FBECDBFCF
:10593000DF91CF91FF90EF90DF90CF90BF90AF902D
:105940009F908F907F906F905F904F900895BC01D3
:105950006C5F7F4F25CF2FEFFC01208321830895BB
:10596000682F70E08730A0F4660F771F660F771FEF
:10597000FB01E65CFA4D4591559165917491F42FC8
:10598000E52F362F272F6F2F7E2F832F922F0895ED
:10599000072E000C880B990B0E947DFE20E030E062
:1059A0004EE352E40E94DCFE20E030E040E251E4AD
:1059B0000F942705F62FE72F382F292FE4CF8F924A
:1059C0009F92AF92BF92CF92DF92EF92FF920F938E
:1059D0001F93CF93DF938B01EA01FC01C080D1803C
:1059E000E280F380842FBCDF9B01AC01C701B601CC
:1059F0000F94260522E936E74CEA5CE30E94DCFEC0
:105A00004B015C0187E0809FF001819FF00D112424
:105A1000EC0FFD1FEE0FFF1FEE0FFF1FEE57FB4FAA
:105A2000C080D180E280F380C530D10514F0C5E09C
:105A3000D0E087E0809FF001819FF00D1124219636
:105A4000EC0FFD1FEE0FFF1FEE0FFF1FEE57FB4F7A
:105A5000A701960160817181828193810F9426054F
:105A6000A50194010E94DCFEA70196010F94270571
:105A7000DF91CF911F910F91FF90EF90DF90CF902A
:105A8000BF90AF909F908F900895682F70E08730FF
:105A9000A0F4660F771F660F771FFB01EA5AFA4DD5
:105AA0004591559165917491F42FE52F362F272F4D
:105AB0006F2F7E2F832F922F0895072E000C880BB7
:105AC000990B0E947DFE20E030E04EE352E40E94FC
:105AD000DCFE20E030E040E251E40F942705F62F91
