:100000000C9418130C9449130C9449130C94491331
:100010000C9449130C9449130C9449130C944913F0
:100020000C9449130C9449130C9449130C944913E0
:100030000C9449130C9449130C9449130C944913D0
:100040000C9449130C94708F0C9449130C9449131D
:100050000C9449130C9449130C9402820C949380D1
:100060000C9449130C94C3320C948D320C944913A4
:100070000C9449130C9449130C9449130C94491390
:100080000C9449130C9449130C9449130C94491380
:100090000C9449130C9449130C9449130C94491370
:1000A0000C9449130C9449130C9449130C94491360
:1000B0000C9449130C9449130C9449130C94491350
:1000C0000C9449130C9449130C9449130C94491340
:1000D0000C9449130C9449130C9449130C94491330
:1000E0000C944913084AD73B3BCE016E84BCBFFD3C
:1000F000C12F3D6C74319ABD56833DDA3D00C77FF8
:1001000011BED9E4BB4C3E916BAAAABE0000008090
:100110003F05A84CCDB2D44EB93836A9020C50B91F
:10012000918688083CA6AAAA2ABE000000803F004B
:100130004E414E494E495459494E46CDCCCC3D0ACC
:10014000D7233C17B7D13877CC2B329595E6241FAF
:10015000B14F0A000020410000C84200401C462068
:10016000BCBE4CCA1B0E5AAEC59D7400407A10F33B
:100170005A00A0724E18090010A5D4E80000E876D5
:1001800048170000E40B54020000CA9A3B0000002C
:10019000E1F505000080969800000040420F000045
:1001A00000A08601000000102700000000E8030006
:1001B0000000006400000000000A000000000001D0
:1001C00000000000002C76D888DC674F0823DFC1D0
:1001D000DFAE59E1B1B796E5E3E453C63AE651998B
:1001E0007696E8E6C28426EB898C9B62ED407C6FB4
:1001F000FCEFBC9C9F40F2BAA56FA5F490055A2A6B
:10020000F75C936B6CF9676DC11BFCE0E40D47FE76
:10021000F520E6B500D0ED902E030094357705006B
:1002200080841E080000204E0A000000C80C3333F2
:1002300033330F986E12831141EF8D2114893BE601
:100240005516CFFEE6DB18D1844B381BF77C1D908A
:100250001DA4BBE424203284725E228100C9F124F3
:10026000ECA1E53D27434F4D4D554E49434154497F
:100270004F4E0044525952554E004552524F525320
:1002800000494E464F004543484F0053544F50508D
:1002900045442E20005072696E7465722073746F2D
:1002A000707065642064756520746F206572726F6C
:1002B00072732E2046697820746865206572726FAB
:1002C0007220616E6420757365204D393939207450
:1002D0006F20726573746172742E202854656D707E
:1002E00065726174757265206973207265736574D7
:1002F0002E205365742069742061667465722072C3
:10030000657374617274696E67290A004E6F2043C9
:100310006865636B73756D2077697468206C696EAE
:1003200065206E756D6265722C204C617374204C73
:10033000696E653A2000636865636B73756D206D47
:1003400069736D617463682C204C617374204C690F
:100350006E653A20004C696E65204E756D6265725F
:10036000206973206E6F74204C617374204C696E29
:1003700065204E756D6265722B312C204C61737453
:10038000204C696E653A20004D3131300053657262
:1003900069616C20737461747573206D69736D612C
:1003A0007463680A002121204B494C4C206361751D
:1003B00073656420627920746F6F206D75636820A7
:1003C000696E6163746976652074696D65202D209E
:1003D00063757272656E7420636F6D6D616E643AE1
:1003E0002000627573793A207061757365642066C8
:1003F0006F7220696E7075740A00627573793A20A5
:1004000070617573656420666F7220757365720A1A
:1004100000627573793A2070726F63657373696EE9
:10042000670A006563686F3A004572726F723A003E
:100430004F4646004F4E000A4D6561737572656404
:1004400020706F696E74733A0A00357835206D65D7
:1004500073682E205A206F66667365743A20002FE9
:100460002F616374696F6E3A006E6F7469666963B9
:100470006174696F6E2000656E6400486F74656E0C
:100480006420746F6F20636F6C640A007061757311
:10049000656400506175736500726573756D6564A0
:1004A000004469736D69737300526573756D696E8D
:1004B000670057616974696E6720666F72206865AE
:1004C000617475702E0A004C656176696E6720470D
:1004D0003236003F53706563696669656420582C45
:1004E0005920636F6F7264696E617465206F7574F3
:1004F000206F6620626F756E64732E0A003F28526B
:100500002965706561742076616C7565206E6F7405
:1005100020706C61757369626C653B206D757374D6
:10052000206265206174206C6561737420312E0A2D
:10053000003F2852296570656174206D75737420C1
:1005400062652073706563696669656420776865B4
:100550006E206E6F74207573696E6720616E204C1B
:1005600043442E0A003F53706563696669656420E1
:100570006E6F7A7A6C652074656D706572617475E2
:100580007265206E6F7420706C61757369626C6542
:100590002E0A003F53706563696669656420666969
:1005A0006C616D656E742073697A65206E6F74205E
:1005B000706C61757369626C652E0A003F537065DB
:1005C000636966696564207072696D65206C656E2B
:1005D000677468206E6F7420706C61757369626CEB
:1005E000652E0A003F5072696D65206C656E6774F8
:1005F00068206D7573742062652073706563696629
:10060000696564207768656E206E6F742075736904
:100610006E6720616E204C43442E0A003F53706584
:10062000636966696564206E6F7A7A6C65207369A8
:100630007A65206E6F7420706C61757369626C6589
:100640002E0A003F52657472616374696F6E204DAB
:10065000756C7469706C696572206D757374206255
:1006600065207370656369666965642E0A003F538F
:10067000706563696669656420526574726163744C
:10068000696F6E204D756C7469706C696572206E4F
:100690006F7420706C61757369626C652E0A003F1F
:1006A000537065636966696564206C617965722061
:1006B000686569676874206E6F7420706C6175730B
:1006C00069626C652E0A0043292E0A003F5370654B
:1006D000636966696564206265642074656D706530
:1006E000726174757265206E6F7420706C617573C1
:1006F00069626C65202834302D00473236207374CF
:10070000617274696E672E2E2E0A004F46460A00EB
:1007100046616465204865696768742000426564C5
:10072000204C6576656C696E6720004661696C6572
:100730006420746F20656E61626C65204265642080
:100740004C6576656C696E670A004D65736820427A
:100750006564204C6576656C20646174613A0A00BA
:10076000496E76616C6964206D6573682E0A00209D
:100770006E6F7420656E74657265642E0A00206F5A
:100780006620004D424C2047323920706F696E74EC
:100790002000290A004A206F7574206F662072615C
:1007A0006E67652028302D00290A0049206F757476
:1007B000206F662072616E67652028302D004732F9
:1007C000384C30004D6573682070726F62696E67D7
:1007D00020646F6E652E0A005374617274206D651B
:1007E00073682070726F62696E6720776974682021
:1007F00022473239205331222066697273742E0ADF
:10080000004732395332004732384C300A473239C8
:10081000533200686173206E6F20646174612E0A28
:10082000004D65736820426564204C6576656C698F
:100830006E67200053206F7574206F662072616EA2
:1008400067652028302D35292E0A004163637572B3
:100850006163792044656372656173696E67210025
:1008600044656372656173696E6720416363757285
:100870006163792044657465637465642E0A00477A
:100880003238004732385A004163637572616379C8
:100890003A2000206F66200044696420004733340A
:1008A0002061626F727465642E0A00416363757221
:1008B000616379204163686965766564005461729B
:1008C0006765742061636375726163792061636831
:1008D00069657665642E0A000A5A322D5A313D0048
:1008E00050726F62696E67204661696C6564005082
:1008F000726F62696E67206661696C65640A000ADE
:1009000047333420497465726174696F6E3A200010
:100910003F2841296D706C696669636174696F6E07
:10092000206F7574206F6620626F756E6473202867
:10093000302E352D322E30292E0A003F28542961C1
:1009400072676574206163637572616379206F7586
:1009500074206F6620626F756E64732028302E30AD
:10096000312D312E30292E0A003F28492974657215
:100970006174696F6E206F7574206F6620626F7589
:100980006E64732028312D3330292E0A0020204D2B
:100990003432322053005A204175746F2D416C69F6
:1009A000676E0046696E6973686564210A003A20C3
:1009B0007A3A2000206F662000476F696E672074C6
:1009C0006F3A20580043570A00206469723A0020A9
:1009D000616E676C653A0053746172742072616471
:1009E0006975733A00506F736974696F6E696E67E9
:1009F000207468652070726F62652E2E2E0A003F8B
:100A00004C656773206F66206D6F76656D656E74DB
:100A100020696D706C61757369626C652028302D7A
:100A20003135292E0A003F2028582C5929206F756E
:100A300074206F6620626F756E64732E0A005072A8
:100A40006F6265206F7574206F6620626F756E64CB
:100A500073003F53616D706C652073697A65206E19
:100A60006F7420706C61757369626C652028342D19
:100A70003530292E0A004D3438205A2D50726F62BD
:100A800065205265706561746162696C6974792072
:100A9000546573740A003F2856296572626F736546
:100AA000206C6576656C20696D706C617573696228
:100AB0006C652028302D34292E0A005374616E6431
:100AC00061726420446576696174696F6E3A2000D2
:100AD0002052616E67653A2000204D61783A20000F
:100AE000204D696E3A2000205369676D613A2000FD
:100AF0004D65616E3A200020440020204D32303098
:100B0000205300202844697361626C6564293A00AF
:100B100046696C616D656E742073657474696E6787
:100B2000730020204D3230312058004D6178204133
:100B30006363656C65726174696F6E2028756E6998
:100B400074732F7332290020204D32303320580027
:100B50004D617820666565647261746573202875DF
:100B60006E6974732F73290020520020204D32309B
:100B700034205000416363656C65726174696F6E07
:100B80002028756E6974732F7332292028503C70A9
:100B900072696E742D616363656C3E20523C7265B0
:100BA00074726163742D616363656C3E20543C74A0
:100BB000726176656C2D616363656C3E290020541B
:100BC0000020530020204D32303520420041647611
:100BD000616E6365642028423C6D696E5F73656772
:100BE0006D656E745F74696D655F75733E20533C0F
:100BF0006D696E5F66656564726174653E20543C24
:100C00006D696E5F74726176656C5F66656564724E
:100C10006174653E20583C6D61785F785F6A6572EB
:100C20006B3E20593C6D61785F795F6A65726B3EFF
:100C3000205A3C6D61785F7A5F6A65726B3E204531
:100C40003C6D61785F655F6A65726B3E2900204488
:100C50000020490020204D333031205000486F746F
:100C6000656E642050494400204400204900202043
:100C70004D333034205000426564205049440020F8
:100C8000580020204D61783A2000200020204D6936
:100C90006E3A2000203B200020204D32313120537D
:100CA00000536F667420656E6473746F70730020F8
:100CB0003B0020550020204D363033204C00466943
:100CC0006C616D656E74206C6F61642F756E6C6FF6
:100CD0006164003B200020286D6D290020496E765C
:100CE000616C696420657874727564657220004770
:100CF000322F47332062616420706172616D6574C8
:100D00006572730A00536C6565702E2E2E005A2092
:100D100050726F62652050617374204265640A00EE
:100D20005A2050726F62652050617374204265646E
:100D300000205A3A200020593A2000426564205889
:100D40003A20004D65736820706F696E74206F756E
:100D500074206F662072616E67650A004D30205303
:100D6000746F70004D312053746F70004E6F204DC2
:100D70006F76652E002569730025696D20256973DE
:100D8000002569682025696D20256973002569643F
:100D9000202569682025696D2025697300256979FA
:100DA00020256964202569682025696D20256973DF
:100DB000006E6F74696669636174696F6E200050BC
:100DC00072696E742074696D653A20006F6B006FF4
:100DD000666600860281027A027302650244454219
:100DE00055473A004D313133205300417274696CDC
:100DF0006C657279205369646577696E64657220E9
:100E00005831204F46462E002F2F005741524E4951
:100E10004E4721204C6F77205A204A65726B206D17
:100E20006179206C65616420746F20756E77616EE6
:100E3000746564207061757365732E0A0046523ABA
:100E40000020466C6F773A20004D424C2041646A86
:100E5000757374205A0064697300656E0043290A33
:100E60000061626C656420286D696E2074656D7028
:100E70002000436F6C64206578747275646573201C
:100E800061726520004D65736820706F696E742013
:100E90006F7574206F662072616E67650A004D344D
:100EA000323120696E636F72726563742070617293
:100EB000616D657465722075736167650A004F66C0
:100EC0006673657473204170706C69656400546F5B
:100ED0006F206661722066726F6D20726566657242
:100EE000656E636520706F696E740A0045455052E7
:100EF0004F4D204F4B0A003F2842296175642072F4
:100F000061746520696D706C61757369626C652EC2
:100F10000A002062617564207261746520736574D3
:100F200020746F20002053657269616C2000290ACB
:100F30000020746F20003F5A206F7574206F662068
:100F400072616E6765202800290A0020746F2000F6
:100F50003F59206F7574206F662072616E6765203F
:100F6000282D00290A0020746F20003F58206F753B
:100F700074206F662072616E676520282D002E0A2E
:100F8000002028302D313029002076616C756520D5
:100F90006F7574206F662072616E676500416476BC
:100FA000616E6365204B3D003F285929206F7574A1
:100FB000206F6620626F756E64732E0A003F28589A
:100FC00029206F7574206F6620626F756E64732EB2
:100FD0000A003F2853292050726F62652D706F738D
:100FE0006974696F6E20696E64657820696E7661D8
:100FF0006C69642E0A003F285329206973207265AA
:101000007175697265642E0A006F6B0020204D3285
:101010003036205800486F6D65206F6666736574C2
:1010200000446966663A2020200046726F6D537452
:10103000703A00537465707065723A00556E4C6575
:1010400076656C3A004C6576656C65643A00526171
:10105000773A20202020000A4C6F676963616C3A60
:1010600000436F756E7420453A004361703A007D0D
:10107000002C7A3A002C793A007D2C6D61783A7B0D
:10108000783A002C7A3A002C793A007D7D2C776FE3
:10109000726B3A7B6D696E3A7B783A002C7A3A0033
:1010A0002C793A007D2C6D61783A7B783A002C7A65
:1010B0003A002C793A00617265613A7B66756C6C16
:1010C0003A7B6D696E3A7B783A004D454154504108
:1010D000434B00434F4F4C45525F54454D50455292
:1010E0004154555245004348414D4245525F544595
:1010F0004D50455241545552450042414259535476
:10110000455050494E470041524353004D4F5449BA
:101110004F4E5F4D4F44455300544845524D414C4E
:101120005F50524F54454354494F4E004C4F4E4729
:101130005F46494C454E414D45004155544F52453F
:10114000504F52545F53445F5354415455530053CE
:10115000445F57524954450052455045415400534D
:1011600044434152440050524F4D50545F535550E8
:10117000504F525400484F53545F414354494F4ECF
:101180005F434F4D4D414E445300454D45524745F9
:101190004E43595F50415253455200434153455FBE
:1011A0004C494748545F4252494748544E4553536F
:1011B00000544F47474C455F4C49474854530053F0
:1011C0004F4654574152455F504F57455200425584
:1011D000494C445F50455243454E54004C4556459A
:1011E0004C494E475F44415441005A5F50524F4270
:1011F000450052554E4F5554004155544F4C45569D
:10120000454C005052494E545F4A4F420050524F95
:101210004752455353004155544F5245504F525435
:101220005F54454D50004155544F5245504F525414
:101230005F504F5300564F4C554D45545249430053
:10124000454550524F4D0042494E4152595F464923
:101250004C455F5452414E53464552005345524906
:10126000414C5F584F4E5F584F4646004649524DDD
:10127000574152455F4E414D453A4D61726C696E22
:1012800020322E302E392E32202D20444947412D38
:10129000546563682041535758312076312E3020F1
:1012A000284F637420203520323032312031343AD7
:1012B00034333A35372920534F555243455F434F16
:1012C00044455F55524C3A6769746875622E636F86
:1012D0006D2F4D61726C696E4669726D77617265D2
:1012E0002F4D61726C696E2050524F544F434F4CDA
:1012F0005F56455253494F4E3A312E30204D4143AF
:1013000048494E455F545950453A417274696C6C76
:10131000657279205369646577696E6465722058D7
:10132000312045585452554445525F434F554E5411
:101330003A3120555549443A6365646532613266F5
:101340002D343161322D343734382D396231322D1C
:101350006335356336326633363766660A00203BBE
:101360000020204D3835312058005A2D50726F62C0
:1013700065204F66667365740042656420436F6F35
:101380006C696E672E2E2E0042656420486561747C
:10139000696E672E2E2E0023646566696E65204493
:1013A000454641554C545F0000626564004B642023
:1013B000004B6920004B7020005049442041757457
:1013C0006F74756E652066696E6973686564212047
:1013D00050757420746865206C617374204B702C98
:1013E000204B6920616E64204B6420636F6E7374C0
:1013F000616E74732066726F6D2062656C6F77200A
:10140000696E746F20436F6E666967757261746987
:101410006F6E2E680A00504944204175746F7475D0
:101420006E65206661696C6564212074696D656F05
:1014300075740A00504944204175746F74756E6567
:10144000206661696C6564212054656D7065726108
:101450007475726520746F6F20686967680A002070
:101460004B643A2000204B693A2000204B703A2010
:101470000020436C617373696320504944200A0063
:10148000204E6F206F76657273686F6F740A00204C
:1014900054753A2000204B753A2000206D61783A4F
:1014A0002000206D696E3A200020643A20002062FE
:1014B0006961733A2000504944204175746F747516
:1014C0006E652073746172740A005049442041753E
:1014D000746F74756E65206661696C656421205453
:1014E000656D706572617475726520746F6F2068C8
:1014F0006967680A00504944204175746F74756EBD
:101500006500504944204175746F74756E6520669E
:1015100061696C656421204261642068656174655D
:10152000722069640A00486F6D696E6720466169C0
:101530006C6564006F70656E0054524947474552B0
:101540004544003A20007A5F6D696E00795F6D69ED
:101550006E00785F6D696E005265706F7274696EAF
:101560006720656E6473746F702073746174757333
:101570000A0020746F6F206C6F6E6720657874723C
:101580007573696F6E2070726576656E7465640A36
:101590000020636F6C6420657874727573696F6E78
:1015A0002070726576656E7465640A00486F6D65BB
:1015B000202573257325732046697273740000001B
:1015C00040C0000040C0000000005761726E696EAC
:1015D000673A20486F6D696E672042756D702044D0
:1015E000697669736F72203C20310A0002020400A0
:1015F000009A4300009A430000C8430000A0400046
:1016000000A0400000004000809843008098430004
:1016100000C843000040C0000040C000000000536C
:10162000657474696E67732053746F726564002902
:101630000A002062797465733B2063726320005353
:10164000657474696E67732053746F7265642028C3
:101650000048617264636F64656420446566617507
:101660006C742053657474696E6773204C6F616489
:1016700065640A00203B204C6576656C696E6720C6
:101680000020204D3432302053004D6573682042D5
:101690006564204C6576656C696E670020204D3965
:1016A0003030204B004C696E656172204164766178
:1016B0006E6365002020473239205334205A0020C1
:1016C0004A00202047323920533320490020204D42
:1016D0003134392043203B20556E69747320696E84
:1016E0002043656C736975730A0054656D7065728B
:1016F000617475726520556E6974730020204732DD
:1017000031203B004C696E65617220556E697473BF
:1017100000454550524F4D206461746173697A658C
:10172000206572726F722E0A00454550524F4D204F
:1017300056657273696F6E204572726F720045450F
:1017400050524F4D20496E646578204572726F7219
:1017500000454550524F4D20435243204572726F11
:101760007200290A002062797465733B20637263FA
:1017700020002073746F7265642073657474696EE1
:10178000677320726574726965766564202800202D
:101790002863616C63756C6174656429210A00209B
:1017A000213D2000454550524F4D20435243206D6E
:1017B00069736D61746368202D202873746F72657E
:1017C000642920002053697A653A2000496E6465D7
:1017D000783A200000004843000048430000A04140
:1017E00000002042F43DA042F43DA04296E3C743EE
:1017F0000080DE43D0070000D00700006400000036
:1018000010270000204D61726C696E3D56383529F5
:101810000A00454550524F4D2076657273696F6ED0
:10182000206D69736D617463682028454550524F7F
:101830004D3D0024F4D43050C38E20C2A240178204
:101840008B7011127A910D816CD90AA861E108C7D9
:10185000586607615143061E4B5D05C145A7041A32
:10186000411104093D9803713931034036DB0265AB
:10187000339102D4305402802E1D02632CEE017588
:101880002AC501B028A001102781018F2564012BF2
:10189000244B01E0223401AC211F018D200D018079
:1018A0001FFC00841EED00971DDF00B81CD200E66F
:1018B0001BC600201BBC00641AB200B219A8000AA3
:1018C00019A0006A189900D117910040178B00B534
:1018D00016840031167E00B31579003A157300C7DF
:1018E000146F0058146A00EE136600881363002515
:1018F000135E00C7125B006C12570015125400C132
:1019000011510070114F0021114B00D61049008D6C
:101910001047004610440002104200C00F400080F3
:101920000F3E00420F3C00060F3B00CB0E380093E9
:101930000E37005C0E3500270E3400F30D3200C167
:101940000D3100900D3000600D2E00320D2D000580
:101950000D2C00D90C2B00AE0C2900850C29005C45
:101960000C2700350C27000E0C2600E80B2400C4C1
:101970000B2400A00B23007D0B23005A0B21003900
:101980000B2100180B2000F80A1F00D90A1E00BB0B
:101990000A1E009D0A1D00800A1D00630A1C0047E4
:1019A0000A1B002C0A1B00110A1A00F7091A00DD95
:1019B000091900C4091900AB091900920917007B25
:1019C000091800630917004C091600360916002093
:1019D0000916000A091500F5081500E0081400CCE6
:1019E000081400B8081400A4081400900813007D1F
:1019F0000812006B08130058081200460812003441
:101A0000081100230811001208110001081100F04C
:101A1000071000E0071000D0071000C0071000B04A
:101A2000070F00A107100091070E0083070F007435
:101A3000070F0065070E0057070E0049070E003B11
:101A4000070D002E070E0020070D0013070D0006DE
:101A5000070D00F9060C00ED060D00E0060C00D4A1
:101A6000060C00C8060C00BC060C00B0060C00A456
:101A7000060B0099060C008D060B0082060B007702
:101A8000060B006C060B0061060A0057060B004CA3
:101A9000060A0042060A0038060A002E060A00243A
:101AA000060A001A060A001006090007060A00FDC9
:101AB000050900F4050900EB050900E2050900D954
:101AC000050900D0050900C7050900BE050900B5D4
:101AD000050800AD050800A50509009C050800944F
:101AE0000508008C050800840508007C05080074C2
:101AF0000508006C050700650508005D0507005630
:101B00000508004E05070047050700400508003896
:101B1000050700310507002A050700230507001CFB
:101B2000050600160507000F050700080506000258
:101B3000050700FB040600F5040700EE040600E8B4
:101B4000040600E2040700DB040600D5040600CF0B
:101B5000040600C9040600C3040600BD040600B75D
:101B6000040600B1040500AC040600A6040600A0AB
:101B70000405009B04060095040500900406008AF5
:101B800004050085040500800406007A040500753C
:101B9000040500700405006B04050066040500617F
:101BA0000405005C04050057040500520405004DBF
:101BB00004050048040500430405003E0404003AFF
:101BC00004050035040500300404002C040500273A
:101BD000040400230405001E0404001A0404001673
:101BE000040500110404000D0404000904050004A8
:101BF00004040000040400FC030400F8030400F4DF
:101C0000030400F0030400EC030400E8030400E410
:101C1000030400E0030400DC030400D8030400D440
:101C2000030400D0030400CC030400C8030300C570
:101C300003030024F404D9201BC40C5C0E9804C4D4
:101C4000095F0265077101F405F900FB04B3004860
:101C5000048700C10369005803550003034500BE13
:101C6000023A008402310053022A002902250004AE
:101C7000022000E4011C00C8011900AF0117009800
:101C80000114008401130071011000610110005162
:101C9000010E0043010D0036010B002B010B00204B
:101CA000010B00150109000C01090003010800FBEC
:101CB000000800F3000800EB000700E4000600DE67
:101CC000000600D8000600D2000600CC000500C7C0
:101CD000000500C2000500BD000400B9000400B505
:101CE000000400B1000400AD000400A9000400A538
:101CF000000300A20003009F0004009B0003009863
:101D00000003009500020093000300900003008D83
:101D10000002008B0003008800020086000200849D
:101D2000000300810002007F0002007D0002007BB2
:101D300000020079000200770001007600020074C2
:101D400000020072000100710002006F0002006DCD
:101D50000001006C0002006A0001006900020067D7
:101D600000010066000100650001006400020062DD
:101D700000010061000100600001005F0002005DE1
:101D80000001005C0001005B0001005A00010059E5
:101D900000010058000100570001005600010055E5
:101DA00000010054000100530000005300010052E4
:101DB00000010051000100500001004F0001004EE1
:101DC0000000004E0001004D0001004C0001004BDE
:101DD0000000004B0001004A0001004900010048DA
:101DE00000000048000100470001004600000046D6
:101DF00000010045000000450001004400010043CF
:101E000000000043000100420000004200010041C8
:101E100000000041000100400001003F0000003FC1
:101E20000001003E0000003E0001003D0000003DBA
:101E30000001003C0000003C0000003C0001003BB1
:101E40000000003B0001003A0000003A00010039A8
:101E500000000039000100380000003800000038A0
:101E60000001003700000037000100360000003696
:101E7000000000360001003500000035000000358C
:101E80000001003400000034000000340001003381
:101E90000000003300000033000100320000003277
:101EA000000000320001003100000031000000316C
:101EB0000001003000000030000000300001002F61
:101EC0000000002F0000002F0000002F0001002E56
:101ED0000000002E0000002E0001002D0000002D4B
:101EE0000000002D0000002D0001002C0000002C3F
:101EF0000000002C0000002C0001002B0000002B33
:101F00000000002B0000002B0001002A0000002A26
:101F10000000002A0000002A00010029000000291A
:101F2000000000290000002900000029000100280D
:101F30000000002800000028000000280000002801
:101F400000010027000000270000002700000027F4
:101F500000000027000100260000002600000026E7
:101F600000000026000000260001002500000025DA
:101F700000000025000000250000002500000025CD
:101F800000010024000000240000002400000024C0
:101F900000000024000100230000002300000023B3
:101FA00000000023000000230000002300000023A5
:101FB0000001002200000022000000220000002298
:101FC000000000220000002200010021000000218A
:101FD000000000210000002100000021000000217D
:101FE000000000210001002000000020000000206F
:101FF0000000002000000020000000200000002061
:10200000000000200001001F0000001F0000001F52
:102010000000001F0000001F0000001F0000001F44
:102020000001001E0000001E0000001E0000001E37
:10203000000000C23100001C260000F4190000D886
:102040000F0000EB080000C0040000750200004013
:1020500001000020436F756E7420583A000045005F
:10206000626564002C2073797374656D2073746FDE
:102070007070656421204865617465725F49443AF7
:10208000200048656174696E67204661696C65640B
:102090000048656174696E67206661696C656400FB
:1020A0004D3131322053687574646F776E0045721C
:1020B000723A204D415854454D50004D41585445B9
:1020C0004D5020747269676765726564004572726D
:1020D0003A204D494E54454D50004D494E54454DC2
:1020E0005020747269676765726564005448455290
:1020F0004D414C2052554E4157415900546865722C
:102100006D616C2052756E6177617900202F00201F
:1021100042403A0020403A0020573A0020573A0007
:102120002053004D313036205000496E76616C6985
:10213000642065787472756465720A0070012C0100
:1021400090012701B0012201C0011D01F001180119
:102150001002130130020E01600209019002040115
:10216000C002FF000003FA004003F5008003F00006
:10217000D003EB002004E6007004E100E004DC0082
:102180004005D700C005D2004006CD00D006C800EB
:102190008007C3003008BE00F008B900C009B400D1
:1021A000B00AAF00B00BAA00D00CA500000EA00032
:1021B000500F9B00C01096005012910000148C002C
:1021C000C0158700B0178200B0197D00D01B7800C1
:1021D000001E730040206E0090226900F02464000D
:1021E00040275F0090295A00E02B5500102E500028
:1021F00020304B0010324600E033410090353C0067
:102200001037370070383200A0392D00B03A28005E
:10221000A03B2300603C1E00103D1900903D1400BF
:10222000103E0F00703E0A00C03E0500003F000057
:10223000403FFBFF803FF6FFC03FF1FF2020506C86
:10224000616E6E6572427566666572427974657319
:102250003A20002046726565204D656D6F72793AAF
:10226000200020436F6D70696C65643A204F637481
:1022700020203520323032310A00204C6173742026
:10228000557064617465643A20323032312D3039D2
:102290002D3033207C20417574686F723A202844B9
:1022A0004947412D546563682C20415357583120CC
:1022B00076312E30290A004D61726C696E20322E03
:1022C000302E392E320A0020536F667477617265A2
:1022D0002052657365740A00205761746368646FE7
:1022E000672052657365740A002042726F776E2012
:1022F0006F75742052657365740A002045787465A3
:10230000726E616C2052657365740A00506F776558
:102310007255700A0073746172740A00205A3A0090
:1023200020593A0020583A00656E6473746F7073D8
:10233000206869743A200000002100240027002A48
:10234000002D003000330001010000040107010AE4
:102350000100002200250028002B002E003100344F
:102360000002010000050108010B01050505050734
:102370000508080808020202020A0A080804040400
:10238000040101010101010101030303030303032C
:1023900003040707070C0C0C0C0C0C0C0C020202BB
:1023A0000206060606060606060B0B0B0B0B0B0BAE
:1023B0000B0102102020080810204010204080024D
:1023C000010201080402010102040810204080807B
:1023D00040201008040201800402018040201008FF
:1023E00004020108040201010204081020408001D7
:1023F0000204081020408000000A0B02090C0D0E98
:1024000008070304010000000000000000000000B5
:1024100000000000000000000000000000000000BC
:102420000000001211100000000000000000000079
:1024300000000000000000000000000000FFFFFF9F
:1024400050726F62696E67204661696C65640A004C
:1024500050726F62696E67204661696C6564002026
:102460005A3A200020593A200042656420583A2008
:102470000053656E64204D31303820746F207265D2
:1024800073756D650A00496E736572742066696CB8
:10249000616D656E7420616E642073656E64204D9D
:1024A0003130380A0052656865617420446F6E658A
:1024B00000526568656174696E672E2E2E00526544
:1024C00068656174004865617465722054696D6562
:1024D0006F75740053656E64204D31303820746F11
:1024E0002068656174206E6F7A7A6C650A004E6FA1
:1024F0007A7A6C65205061726B65640070726F6DE2
:1025000070745F0073686F7700627574746F6E002B
:10251000626567696E0050757267654D6F72650020
:1025200050617573656400436F6E74696E75650004
:102530004C6F61642046696C616D656E7420540057
:10254000496E736572742066696C616D656E742086
:10255000616E642073656E64204D3130380A00204E
:10256000746F6F206C6F6E67206578747275736915
:102570006F6E2070726576656E7465640A00206304
:102580006F6C6420657874727573696F6E207072F9
:102590006576656E7465640A00220A00556E6B6E7E
:1025A0006F776E20636F6D6D616E643A202200203C
:1025B0004500205A0020590020204D393220580073
:1025C00053746570732070657220756E6974004570
:1025D00072726F722077726974696E6720746F20EF
:1025E000454550524F4D210A006F6B0A00526573EA
:1025F000656E643A200020453A00205A3A0020597E
:102600003A00583A00706F7765726F6666005072D4
:10261000696E7465722068616C7465642E206B69E4
:102620006C6C28292063616C6C6564210A0014B409
:1026300011241FBECFEFD1E2DEBFCDBF00E00CBF43
:1026400013E0A0E0B2E0E6E5FEE801E00BBF02C067
:1026500007900D92A031B107D9F723E1A0E1B3E0D3
:1026600001C01D92A731B207E1F713E1C8E1D3E140
:1026700000E006C021970109802FFE010E941BC4C3
:10268000C731D10780E00807A9F70E94FCB40C9479
:1026900029C70C940000AF92BF92CF92DF92EF92C5
:1026A000FF920F931F93CF93DF93CFE5D0E10FEF0E
:1026B0001AE08FE6A82E80E1B82EC12CD12C76012D
:1026C000C39469917991899199910E9477BD2889E4
:1026D00039894A895B890E94D8BD0E9479C5F80171
:1026E00061937193819391938F01C616D706E80683
:1026F000F90610F46B017C01AC16BD0611F76FEF03
:102700007FEFCB01A70196010E949DC320930F0B81
:102710003093100B4093110B5093120BDF91CF911C
:102720001F910F91FF90EF90DF90CF90BF90AF90EF
:102730000895CF92DF92EF92FF928091D603882383
:1027400009F457C0C090D203D090D303E090D403D3
:10275000F090D50320E030E0A901C701B6010E9446
:1027600073BD882309F445C020E030E040E05FE31A
:10277000C701B6010E94D8BD9B01AC010E94D8BD23
:102780002BED3FE049E450E40E94D8BD9B01AC0131
:1027900060E070E080E89FE30E940CC56B017C0163
:1027A000C092B903D092BA03E092BB03F092BC038B
:1027B00060911A0270911B02072E000C880B990B76
:1027C0000E9479BD2AE037ED43E25CE30E94D8BD68
:1027D000A70196010E94D8BD6093590270935A02D6
:1027E00080935B0290935C02FF90EF90DF90CF901C
:1027F0000895C12CD12C80E8E82E8FE3F82ED0CF9D
:102800002F923F924F925F926F927F928F929F9200
:10281000AF92BF92CF92DF92EF92FF920F931F93EE
:10282000CF93DF93CDB7DEB764970FB6F894DEBFD2
:102830000FBECDBF7A8B698BDC018D909D90AD90E2
:10284000BC90139714962D913D914D915C911797E3
:102850002D833E834F83588720E030E040E251E4EF
:10286000C501B4010E942FC42DE633EF45E65CE3B9
:102870000E94D8BD0E9474C564300CF427C163E087
:10288000E62E660FFF08F701EE0FFF1FEE0FFF1F8A
:10289000E250FE4E40805180628073801701BFEF8E
:1028A0002B1A3B0A20E030E040E251E46D817E814A
:1028B0008F8198850E942FC42DE633EF45E65CE3B7
:1028C0000E94D8BD0E9474C564300CF403C163E05B
:1028D000062F660F110BF801EE0FFF1FEE0FFF1F03
:1028E000E250FE4E208131814281538129833A8317
:1028F0004B835C83A8014F5F5F4F5C8B4B8BA5E0E4
:10290000AE9DC001AF9D900D11249A878987FC016F
:10291000E00FF11FEE0FFF1FEE0FFF1FE951FC4FFD
:10292000C080D180E280F380F101EE0FFF1FEE0F37
:10293000FF1FE250FE4EA3019201608171818281EE
:1029400093810E942FC46B877C878D879E87A3010C
:102950009201C501B4010E942FC42B013C0125E066
:10296000229DF001239DF00D1124F88BEF87E00FDD
:10297000F11FEE0FFF1FEE0FFF1FE951FC4FA701E4
:10298000960160817181828193810E942FC42B8581
:102990003C854D855E850E940CC5A30192010E9475
:1029A000D8BDA70196010E9430C46B017C01E98566
:1029B000FA854B895C89E40FF51FEE0FFF1FEE0FC0
:1029C000FF1FE951FC4F80809180A280B380EF858A
:1029D000F889E40FF51FEE0FFF1FEE0FFF1FE951FF
:1029E000FC4FA501940160817181828193810E94D5
:1029F0002FC42B853C854D855E850E940CC5A301A7
:102A000092010E94D8BDA50194010E9430C4A70183
:102A100096010E942FC44B015C01EB89FC89EE0FEB
:102A2000FF1FEE0FFF1FE250FE4E29813A814B81BE
:102A30005C8160817181828193810E942FC49B019E
:102A4000AC01C501B4010E940CC54B015C01298198
:102A50003A814B815C816D817E818F8198850E9456
:102A60002FC49B01AC01C501B4010E94D8BDA701D0
:102A700096010E9430C4A989BA892D913D914D914A
:102A80005C910E94D8BD20914B0430914C04409140
:102A90004D0450914E040E9430C464960FB6F894D1
:102AA000DEBF0FBECDBFDF91CF911F910F91FF9081
:102AB000EF90DF90CF90BF90AF909F908F907F90DE
:102AC0006F905F904F903F902F90089567FFD8CE02
:102AD00060E0D6CE67FFFCCE60E0FACE8F929F9288
:102AE000AF92BF92CF92DF92EF92FF92CF93DF939C
:102AF000EC018090B0109090B110A090B210B09006
:102B0000B31020E030E0A901C501B4010E9473BDFB
:102B1000882309F454C0C880D980EA80FB80A701CB
:102B20009601C501B4010E9473BD18160CF04CC08B
:102B30002091A7103091A8104091A9105091AA108F
:102B4000C701B6010E9473BD882331F1C092A7105E
:102B5000D092A810E092A910F092AA102091AB1088
:102B60003091AC104091AD105091AE1068817981D8
:102B70008A819B810E94D8BD9B01AC0160E070E01E
:102B800080E89FE30E942FC460931602709317029F
:102B900080931802909319026091160270911702A7
:102BA0008091180290911902DF91CF91FF90EF90E0
:102BB000DF90CF90BF90AF909F908F90089560E08E
:102BC00070E080E89FE3F0CF60E070E0CB01ECCFF5
:102BD0000F931F93CF93DF9300D01F92CDB7DEB733
:102BE0002091AF102223D1F08C01089677DF698302
:102BF0007A838B839C83BE016F5F7F4FC80100DEA9
:102C00009B01AC01F80160857185828593850E94E6
:102C10002FC4F80160877187828793870F900F9088
:102C20000F900F90DF91CF911F910F9108950F9307
:102C30001F93E62FDC01FC910F2F10E030E020E025
:102C4000062E04C036952795179507950A94D2F756
:102C500000FF1CC00091AC0310E030E020E004C095
:102C600036952795179507956A95D2F700FF0EC000
:102C700041E050E060E070E004C0440F551F661F63
:102C8000771FEA95D2F740954F234C931F910F91F0
:102C90000895CF93DF9324E0829FC0011124EC01BB
:102CA000C156DE4EFC01E354FB4F83559C4FDC01C3
:102CB0002D913D914D915C916081718182819381D3
:102CC0000E9430C4688379838A839B83DF91CF918C
:102CD0000895CF93DF931F92CDB7DEB7898360E06D
:102CE000CE010196A4DF61E0CE010196A0DF62E093
:102CF000CE0101969CDF89810F90DF91CF910895DD
:102D00008091A8039091A903A091AA03B091AB036D
:102D10008093550290935602A0935702B0935802A5
:102D20008091A6039091A70390935402809353023D
:102D300008958091550290915602A0915702B0914A
:102D400058028093A8039093A903A093AA03B09379
:102D5000AB0380915302909154029093A703809308
:102D6000A60384E690E09093540280935302089562
:102D700090E080E00895282F90916503833021F43E
:102D800095FD0FC094FD0FC0892F90E0B0E0A0E04A
:102D900004C0B695A795979587952A95D2F7817027
:102DA000089581E0089580E008958091800384FD76
:102DB0000BC08091820387FD07C0909183039370BD
:102DC00081E019F480E0089581E00895FC016591A7
:102DD0007591859194910895CF92DF92EF92FF9231
:102DE000CF93DF93EC01CC80DD80EE80FF8023EA7F
:102DF00031E040E450ECC701B6010E9457C687FDA0
:102E000023C023E030E848E953E4C701B6010E943B
:102E100073BD1816CCF0C880D980EA80FB8023EA05
:102E200031E040E450ECC701B6010E9457C687FD6F
:102E30000BC0C1E023E030E848E953E4C701B60124
:102E40000E9473BD18160CF4C0E08C2FDF91CF9157
:102E5000FF90EF90DF90CF9008952FEB280F2A314D
:102E600008F047C0E22FF0E0809180039091810349
:102E7000A0918203B091830304C0B695A79597955E
:102E800087952A95D2F780FD02C081700895EA598E
:102E9000FC4FE081EE2341F180915D1090915E1036
:102EA000E80FF92FF11D808190ED980F9A3030F0E6
:102EB0008E3251F4818180538A3098F4F0935D030F
:102EC000E0935C0381E008958D3211F08B3249F478
:102ED000818190ED980F9A3088F38E3211F48281BF
:102EE000EACFF0E0E0E0EACF10925D0310925C03DD
:102EF000E9CF80E00895B1DF882341F081E020919F
:102F00005C0330915D03232B09F480E00895282FA2
:102F100080930D028032D8F480916403281724F046
:102F200081E0820F8093640380916003909161033C
:102F3000A0916203B091630304C0B695A7959795DD
:102F400087952A95D2F7817080935A100895109230
:102F50005A100895CF93DF93EC01CF3481E0D80766
:102F600014F0CFE4D1E0D0938E04C0938D0460912F
:102F7000890470918A0480918B0490918C040E9442
:102F800074C5CB01BE01DF91CF910C94DE7F0F930E
:102F90001F93CF93DF9303E710E1C8E2DBE0F80172
:102FA00021913191419151918F0160E070E080E871
:102FB0009FE30E940CC56993799389939993FBE0F1
:102FC000C833DF0761F70E94CE79DF91CF911F915F
:102FD0000F9161CB20E030E0A901BC018DE592E0CA
:102FE0000C940AA70F931F9380919503813019F5D4
:102FF0000E94D27F00918D0310918E0320918F0348
:1030000030919003601B710B820B930B28EE33E021
:1030100040E050E00E949DC36091890370918A0353
:1030200080918B0390918C03620F731F841F951FF7
:103030001F910F9108956091910370919203809177
:10304000930390919403D6CF80919503813079F4C6
:1030500082E0809395030E94D27F609391037093E6
:103060009203809393039093940381E0089580E00A
:10307000089563E00C9443AD80915C0390915D03EF
:10308000009731F04AE050E070E060E00C94DEBB65
:1030900060E070E0CB01089580915C0390915D0346
:1030A000009731F04AE050E070E060E00C94B2BA72
:1030B00060E070E0CB010895EFDF97FD0AC0ECDF20
:1030C0006F3F71058105910509F02CF4E5DF862F2E
:1030D000089580E008958FEF0895CF93C62F0BDFFA
:1030E000882311F0CF91E8CF8C2FCF910895809154
:1030F0005C0390915D03892B39F0DEDF91E0811153
:1031000001C090E0892F089591E0FCCFCF93DF9329
:10311000C82FD62FF0DE882319F0DF91CF91E7CFAB
:103120008C2F9BDE811101C08D2FDF91CF910895EF
:10313000B3DFCB010895CF93DF93EB01DCDE88236F
:1031400019F0DF91CF91F4CFCE01DF91CF910895A7
:103150000F931F93CF9380915C0390915D03009731
:10316000E9F0FC018F01C1912C2F2F7D81F0C53436
:1031700011F0C536B9F7F801108270E060E00E94E6
:103180005CB9F801C083CF911F910F91089570E051
:1031900060E0CF911F910F910C945CB960E070E0FA
:1031A000CB01F1CFCF92DF92EF92FF926A017B01C8
:1031B000A2DE882329F0FF90EF90DF90CF90C8CF58
:1031C000C701B601FF90EF90DF90CF9008958F92E6
:1031D0009F92AF92BF92CF92DF92EF92FF920F93A6
:1031E0001F93CF938DE5E82E82E0F82E0EED1AE0C6
:1031F0009FE9C92E91E1D92EC0E088E58C0F7BDED6
:10320000882339F0A5DF4B015C0180915A10882397
:1032100059F0F70180819181A281B381F801808307
:103220009183A283B38313C08C2FA5DD882309F477
:1032300062C0F7012081318142815381C501B4010F
:103240000E9430C4F8016083718382839383CF5FCF
:10325000F4E0EF0EF11C0C5F1F4F84E0C80ED11C90
:10326000C33059F685E447DE882309F44EC070DF89
:103270006B017C0183E07FDD882371F0209169027E
:1032800030916A0240916B0250916C02C701B60105
:103290000E9430C46B017C01C092EA0AD092EB0A12
:1032A000E092EC0AF092ED0A40E050E0BA0186E4C8
:1032B00079DF20E030E0A9010E9457C618167CF49F
:1032C00047DF20E030E040E752E40E940CC5609305
:1032D0005502709356028093570290935802CF91F3
:1032E0001F910F91FF90EF90DF90CF90BF90AF9024
:1032F0009F908F900895F601208131814281538102
:10330000C501B4010E942FC49DCF809169029091A4
:103310006A02A0916B02B0916C028093EA0A9093CA
:10332000EB0AA093EC0AB093ED0ABECF4091530490
:1033300021E042270C94F279CF93DF938091BD0373
:10334000811119C0C0911C02D0911D02219720E06B
:1033500030E040E05FE36091890470918A048091DD
:103360008B0490918C040E9430C40E9474C521E0AB
:103370006C177D070CF020E0822FDF91CF9108952C
:103380000F931F93CF93DF9300D01F92CDB7DEB77B
:103390002091AF102223D1F08C0108969FDB698326
:1033A0007A838B839C83BE016F5F7F4FC80128DACD
:1033B0009B01AC01F80160857185828593850E942F
:1033C00030C4F80160877187828793870F900F90D0
:1033D0000F900F90DF91CF911F910F9108954F9211
:1033E0005F926F927F928F929F92AF92BF92CF9295
:1033F000DF92EF92FF920F931F93CF93DF93CDB79E
:10340000DEB768970FB6F894DEBF0FBECDBF8C0154
:103410005B015A834983FC01EF5BFF4F608171813F
:10342000828193810E9477BD6B017C01D5012D9132
:103430003D914D915C910E94D8BD0E94F6C42B0134
:103440003C01E981FA812081318142815381C701A8
:10345000B6010E94D8BD0E94F6C44B015C01C301B5
:10346000B2010E9479C5698B7A8B8B8B9C8B6837F4
:1034700071058105910540F428E730E040E050E017
:10348000298B3A8B4B8B5C8BC501B4010E9479C5AB
:103490006D877E878F87988B6837710581059105C9
:1034A00040F488E790E0A0E0B0E08D879E87AF878A
:1034B000B88BF801E35BFF4F20813181428153815A
:1034C00029833A834B835C83CA01B9010E9479BD89
:1034D0002B013C0169897A898B899C890E9477BD7F
:1034E00069877A878B879C8720E030E0A901C30138
:1034F000B2010E9473BD882309F43BC1A701960164
:10350000C701B6010E94D8BD4B015C0129853A85EF
:103510004B855C85CA01B9010E94D8BD9B01AC01F5
:10352000C501B4010E942FC44B015C01A3019201AB
:10353000C301B2010E9430C49B01AC01C501B401BA
:103540000E940CC50E94F6C40E9479C56D837E83DB
:103550008F83988769817A818B819C8190958095F2
:10356000709561957F4F8F4F9F4F0E9479BD4B01A2
:103570005C016D857E858F8598890E9477BD698302
:103580007A838B839C8320E030E0A901C501B401DC
:103590000E9473BD882309F4F0C029813A814B81D0
:1035A0005C81CA01B9010E94D8BD6D8B7E8B8F8B67
:1035B000988FA7019601C701B6010E94D8BD9B0153
:1035C000AC016D897E898F89988D0E942FC46B0113
:1035D0007C01A5019401C501B4010E9430C49B0186
:1035E000AC01C701B6010E940CC50E94A5C5D80157
:1035F00095968D909D90AD90BC90989775016401C3
:103600002D813E814F815885C21AD30AE40AF50AFA
:103610000E9479C5C61AD70AE80AF90AF7FE6EC0F1
:1036200020E030E0A901C301B2010E9473BD8823EC
:1036300009F4A7C0C501B4010E9477BD6B017C01EC
:10364000A3019201C301B2010E9430C49B01AC01ED
:10365000C701B6010E94D8BD6B017C0129853A855E
:103660004B855C85CA01B9010E94D8BD9B01AC01A4
:10367000C701B6010E942FC46B017C0129813A81E8
:103680004B815C81CA01B9010E94D8BD9B01AC018C
:10369000C701B6010E9430C46B017C0120E030E01C
:1036A00040E850E4C301B2010E94D8BD9B01AC01C7
:1036B000C701B6010E940CC50E94F6C46B017C01D3
:1036C00020E030E0A9010E9457C618161CF0C12C5A
:1036D000D12C7601C701B6010E9479C56D837E8326
:1036E0008F83988786169706A806B90620F48D82E0
:1036F0009E82AF82B886C12CD12C76018D819E81AD
:10370000AF81B885F80181A792A7A3A7B4A7C80E77
:10371000D91EEA1EFB1EC5A6D6A6E7A6F0AAEB5B3D
:10372000FF4F29893A894B895C8920833183428301
:10373000538334968D859E85AF85B8898083918328
:10374000A283B38368960FB6F894DEBF0FBECDBFD9
:10375000DF91CF911F910F91FF90EF90DF90CF906D
:10376000BF90AF909F908F907F906F905F904F90A1
:10377000089560E070E0CB01E5CE60E070E0CB0141
:1037800034CF60E070E0CB0197CF8091C41190916D
:10379000C511891B8F7019F490E080E00895909115
:1037A000C111992351F0833030F48FEF890F19F054
:1037B0008093C111F1CF1092C1118091C51122E502
:1037C000829FC0011124865C944FFC01208120FD62
:1037D000E3CF2091C5112F5F2F702093C21130913C
:1037E000C5112091C311321304C02091C21120933E
:1037F000C311089590916F0081E091FD02C080E0B7
:10380000089590916F009D7F90936F000895EFE66B
:10381000F0E08081826080830895CF92DF92EF9202
:10382000FF92CF93DF93C82FE5DF94E0C99FE001BB
:103830001124FE01EE59FB4FC080D180E280F3805D
:103840008111E5DFC85DD44FC701B6010E9479BD83
:10385000288139814A815B810E94D8BDDF91CF9157
:10386000FF90EF90DF90CF900895CF93DF9380E0AB
:10387000D4DFCAE9D3E0688379838A839B8381E0BC
:10388000CCDF6C837D838E839F8382E0C6DF688775
:1038900079878A879B87DF91CF910895CF92DF92B6
:1038A000EF92FF92CF93DF93C82FA4DF94E0C99FDC
:1038B000E0011124FE01EA5AFB4FC080D180E28072
:1038C000F3808111A4DFC85DD44FC701B6010E9407
:1038D00079BD288139814A815B810E94D8BDDF9101
:1038E000CF91FF90EF90DF90CF900895CF93DF932B
:1038F000CDB7DEB72C970FB6F894DEBF0FBECDBFA5
:103900000E942B7977DF9CE0E2E6F4E0DE0111967D
:1039100001900D929A95E1F7811179DFCE01019620
:103920000E9460862C960FB6F894DEBF0FBECDBF06
:10393000DF91CF9108952F923F924F925F926F92B5
:103940007F928F929F92AF92BF92CF92DF92EF922F
:10395000FF920F931F93CF93DF9300D0CDB7DEB7C5
:1039600080905D0290905E02A0905F02B090600235
:103970004090610250906202609063027090640215
:10398000C0906502D0906602E0906702F0906802F5
:103990000E944B130E94991303E116E180E292E02A
:1039A0009B838A8387E0282E86E1382E19828981BD
:1039B00070D9C8010BDAEA81FB816193719381931D
:1039C0009193FB83EA83C10101DAEA81FB8160877D
:1039D000718782879387F981FF5FF9830C5F1F4F9F
:1039E00084E0280E311CF33011F78FE494E00E943C
:1039F000557ACDDAA501940160915D0270915E0265
:103A000080915F02909160020E9473BD81111CC081
:103A1000A301920160916102709162028091630240
:103A2000909164020E9473BD81110EC020916502C5
:103A3000309166024091670250916802C701B60159
:103A40000E9473BD8823B1F00F900F900F90DF910B
:103A5000CF911F910F91FF90EF90DF90CF90BF908B
:103A6000AF909F908F907F906F905F904F903F901E
:103A70002F903CCF0F900F900F90DF91CF911F911F
:103A80000F91FF90EF90DF90CF90BF90AF909F90FD
:103A90008F907F906F905F904F903F902F90089500
:103AA0008F929F92AF92BF92CF92DF92EF92FF924E
:103AB000CF93DF9320911E02222309F49EC0EC01D4
:103AC0008091AC03C82ED12CF12CE12C80FF2CC0AE
:103AD0008090200290902102A0902202B0902302B8
:103AE000288139814A815B81C501B4010E9457C692
:103AF000181624F488829982AA82BB8280902C02B4
:103B000090902D02A0902E02B0902F022881398132
:103B10004A815B81C501B4010E9473BD87FF04C067
:103B200088829982AA82BB82D701C601B695A795E1
:103B30009795879580FF2CC0809024029090250255
:103B4000A0902602B09027022C813D814E815F819A
:103B5000C501B4010E9457C6181624F48C829D82B8
:103B6000AE82BF828090300290903102A0903202EB
:103B7000B09033022C813D814E815F81C501B4013B
:103B80000E9473BD87FF04C08C829D82AE82BF827B
:103B900082E0F694E794D794C7948A95D1F7C0FE53
:103BA0002CC0C0902802D0902902E0902A02F09008
:103BB0002B02288539854A855B85C701B6010E949D
:103BC00057C6181624F4C886D986EA86FB86C090A4
:103BD0003402D0903502E0903602F090370228850A
:103BE00039854A855B85C701B6010E9473BD87FF91
:103BF00004C0C886D986EA86FB86DF91CF91FF9004
:103C0000EF90DF90CF90BF90AF909F908F900895EE
:103C10001F93CF93DF93CDB7DEB760970FB6F894BD
:103C2000DEBF0FBECDBF182F20DE1D861E861F866D
:103C3000188A80919A0390919B03A0919C03B09164
:103C40009D0389839A83AB83BC8380919E0390916B
:103C50009F03A091A003B091A1038D839E83AF83A6
:103C6000B8878091A2039091A303A091A403B0917F
:103C7000A50389879A87AB87BC8783E0CEDD6D87F4
:103C80007E878F87988BCE0101960E94E8151E3F94
:103C900099F480E1FE013196ADE5B2E001900D921C
:103CA0008A95E1F760960FB6F894DEBF0FBECDBFE0
:103CB000DF91CF911F91089584E0189FF0011124A6
:103CC000DF01A35ABD4F81E090E08C0F9D1FE80FEC
:103CD000F91F40815181628173814D935D936D9392
:103CE0007C931397DFCF0C94CE79809199036599DB
:103CF0006EC0816080939903909103018091990334
:103D000091FD67C0826080939903809199034B99DC
:103D100062C0846080939903809199039091980385
:103D2000981709F45AC092E09093970380939803F0
:103D30008091BA04811105C08091F00A882309F4AA
:103D400059C08091550480FF10C08091BB0480FF52
:103D50000CC08091960380FF08C08091EF0A8160BB
:103D60008093EF0A80E00E948086809155048695BA
:103D700080FF11C08091BB04869580FF0CC08091AC
:103D8000960381FF08C08091EF0A82608093EF0A5A
:103D900081E00E948086809155048695869580FFFB
:103DA00029C08091BB048695869580FF23C08091B1
:103DB000F00A8823F9F08091960382FF1BC080915E
:103DC000EF0A84608093EF0A82E00C9480868E7FF5
:103DD00091CF8D7F98CF8B7F9DCF80919703882344
:103DE00009F4A6CF8150809397038111A1CF9093BE
:103DF00096039ECF08958091EF0A882319F01092C0
:103E0000EF0A089560E086E295E10E94F78F109234
:103E1000950310928D0310928E0310928F031092CF
:103E200090031092910310929203109293031092B8
:103E300094031092890310928A0310928B031092BC
:103E40008C030895809195038130E1F08230C1F4B4
:103E5000C9D86093890370938A0380938B039093EE
:103E60008C0381E0809395030E94D27F60938D0341
:103E700070938E0380938F039093900381E0089555
:103E8000C6DFEFCF80E008958091950381508230A6
:103E900070F4109295030E94D27F60939103709307
:103EA0009203809393039093940381E0089580E0BC
:103EB00008958F929F92AF92BF92CF92DF92EF922E
:103EC000FF920F931F93CF93DF931092850310926D
:103ED00084032FE3209388031092870310928603B4
:103EE0001092800310928103109282031092830338
:103EF0009C01F90190812F5F3F4F9032D1F39E34A6
:103F0000C9F4818190ED980F9A3020F08D3211F034
:103F10008B3281F432969F012F5F3F4F8081805317
:103F20008A3008F46BC09F012F5F3F4F8081803241
:103F300009F466C0F0935E10E0935D108F010F5F8F
:103F40001F4FC0816AE270E0C8010E94FEC6009760
:103F500031F0FC01319780818032E1F31182CD3460
:103F600021F0C43511F0C734E1F5F80180810F5F0D
:103F70001F4F8032D1F380538A3098F5C093880365
:103F800030E020E06AE0AF014F5F5F4F629FC00109
:103F9000639F900D11249C01205331098081280FCB
:103FA000311D87FD3A95FA01808180538A3058F39C
:103FB0003093870320938603DF0131968C91803202
:103FC000D9F3CD3449F52E31310539F0D8F4273104
:103FD000310519F02C313105F9F4B0938503A09324
:103FE0008403DF91CF911F910F91FF90EF90DF90AD
:103FF000CF90BF90AF909F908F900895F9018BCF95
:10400000F90191CF2537310538F02737310528F3ED
:10401000203A83E0380709F3D0915D1040E050E08A
:10402000BA0110E000E0C12CD12C7601C394FD014F
:1040300031968C91882309F47FC08132E1F4CD342C
:10404000D1F420323105B9F44093800350938103B9
:104050006093820370938303F0938503E09384035A
:1040600063E270E0CF010E94FEC6009709F4B9CF69
:10407000FC011082B6CF81548A3108F058C0DF01AC
:104080009D91903291F0A0EDA90FAA30E8F09E32F8
:1040900071F4918190539A30B8F00115110519F41B
:1040A0008F010150110990E013C0FD01E8CF9D324E
:1040B00011F09B3291F79181A0EDA90FAA3020F069
:1040C0009E3259F79281E6CF9E2F9D1B309759F370
:1040D000A82FB0E04601570104C0880C991CAA1C07
:1040E000BB1C8A95D2F7482959296A297B29AA59E4
:1040F000BC4F9C9380818154DF018A3108F497CFB3
:10410000DF018191882309F492CF90ED980F9A30C6
:10411000B8F393ED980F923098F38B3289F3CD0179
:104120000196EC91E03209F082CFDC01F8CF011565
:10413000110501F78D01DECF1093850300938403F1
:1041400040938003509381036093820370938303B1
:1041500048CF4F925F926F927F928F929F92AF92D1
:10416000BF92CF92DF92EF92FF92CF93DF9300D076
:1041700000D01F921F92CDB7DEB75C01DB01CD905E
:10418000DD90ED90FC90E091BF11F091C011FE83A5
:10419000ED8384819581A681B78189839A83AB83DE
:1041A000BC839C01AD01C701B6010E942FC42B0145
:1041B0003C01F50180809180A280B380AD81BE81F9
:1041C0008D919D910D90BC91A02D8D839E83AF8389
:1041D000B88723EA31E040E450ECC301B2010E9409
:1041E00057C687FDD5C023E030E848E953E4C30152
:1041F000B2010E9473BD18160CF4CAC02D813E8115
:104200004F815885C501B4010E942FC42B013C0188
:1042100023EA31E040E450EC0E9457C687FDB8C065
:1042200023E030E848E953E4C301B2010E9473BDC2
:1042300018160CF4ADC020E030E040E450E46D818D
:104240007E818F8198850E942FC42B013C0120E044
:1042500030E040E251E40E9473BD87FF06C0412C6C
:10426000512C30E2632E31E4732E27E137EB41ED20
:1042700058E3C301B2010E942FC49B01AC01C501E8
:10428000B4010E9457C687FD83C020E030E848E9AA
:1042900053E46D817E818F8198850E9430C42B010B
:1042A0003C0120E030E843E953E40E9457C6181669
:1042B0003CF4412C20E8522E23E9622E23E4722E96
:1042C00027E137EB41ED58E3C301B2010E9430C44E
:1042D0009B01AC01C501B4010E9473BD18160CF41A
:1042E00057C020E030E040E450E469817A818B815E
:1042F0009C810E942FC44B015C0120E030E040E231
:1043000051E40E9473BD87FF06C0812C912C90E27E
:10431000A92E91E4B92E27E137EB41ED58E3C50111
:10432000B4010E942FC49B01AC01C701B6010E94D9
:1043300057C687FD2DC020E030E848E953E4698185
:104340007A818B819C810E9430C44B015C0120E00A
:1043500030E843E953E40E9457C618163CF4812C18
:1043600080E8982E83E9A82E83E4B82E27E137EB66
:1043700041ED58E3C501B4010E9430C49B01AC017A
:10438000B1E0B983C701B6010E9473BD18160CF4E1
:104390001982898128960FB6F894DEBF0FBECDBF73
:1043A000DF91CF91FF90EF90DF90CF90BF90AF90D3
:1043B0009F908F907F906F905F904F900895CF93D4
:1043C000DF93C091AA04D091AB04209729F16091AA
:1043D000A6047091A7048091A8049091A9040E945A
:1043E00074C56E5F7F4F24976C177D07ACF4709394
:1043F0007404609373040E94D27F605A75418F4F9A
:104400009F4F609375047093760480937704909324
:104410007804DF91CF91089510927504109276047C
:104420001092770410927804F4CF8F929F92AF92FB
:10443000BF92CF92DF92EF92FF92CF93DF93CDB7EF
:10444000DEB760970FB6F894DEBF0FBECDBF80E039
:1044500090E0A8E1B3E48D839E83AF83B8878D8716
:104460009E87AF87B88BE091BF11F091C01180801B
:104470009180A280B38020E030E040E450E4C501A8
:10448000B4010E942FC46B017C0120E030E040E2C7
:1044900051E40E9473BD87FF06C0C12CD12C90E26D
:1044A000E92E91E4F92EC982DA82EB82FC8220E0C7
:1044B00030E848E953E4C501B4010E9430C46B01FF
:1044C0007C0120E030E843E953E40E9457C6181607
:1044D0003CF4C12C80E8D82E83E9E82E83E4F82E42
:1044E000C986DA86EB86FC8680E1FE013196A7ED6F
:1044F000B3E001900D928A95E1F760960FB6F894BB
:10450000DEBF0FBECDBFDF91CF91FF90EF90DF9068
:10451000CF90BF90AF909F908F900895CF93DF93EF
:10452000E5E8F4E0C085D185648175818681978155
:104530000E9474C5CB01BE01DF91CF910C94DE7F48
:104540008F3421E0920714F08FE491E090938E0471
:1045500080938D04E3CFCF93DF93EC01688170E00B
:1045600085E00E94507E698170E084E00E94507E68
:104570006A8170E086E00E94507E88819981482F90
:10458000490F5527551F8A81840F952F911D21E0D2
:10459000833091050CF420E02093720403976CF0B3
:1045A00051E1C63ED50749F088819981AA8180935F
:1045B000E6119093E711A093E811DF91CF91089550
:1045C0008F929F92AF92BF92CF92DF92EF92FF9223
:1045D000CF93DF9300D0CDB7DEB72FEF84179507C9
:1045E00031F16A01052E000CEE08FF084C01092E7E
:1045F000000CAA08BB08681779072CF0CB014617F6
:1046000057070CF4CA019C01990F440B550B28194C
:1046100039094A095B09AFEFB0E00E94DBC3A7018B
:104620009601281939094A095B090E94BFC3809184
:104630009D04821751F020939D048FEF89831A8285
:1046400020952B83CE01019686DF0F900F900F905F
:10465000DF91CF91FF90EF90DF90CF90BF90AF9020
:104660009F908F9008958F929F92AF92BF92CF921A
:10467000DF92EF92FF92CF93DF9300D0CDB7DEB7FA
:104680002FEF8417950731F16A01052E000CEE0813
:10469000FF084C01092E000CAA08BB08681779070F
:1046A0002CF0CB01461757070CF4CA019C01990F57
:1046B000440B550B281939094A095B09AFEFB0E0E3
:1046C0000E94DBC3A7019601281939094A095B0931
:1046D0000E94BFC380919D04821749F020939D04DE
:1046E00029831A828FEF8B83CE01019634DF0F90DE
:1046F0000F900F90DF91CF91FF90EF90DF90CF90D0
:10470000BF90AF909F908F90089510924B0410929D
:104710004C0410924D0410924E04E7EEF3E084E650
:10472000DF011D928A95E9F70895EF92FF920F93AA
:104730001F93CF93DF9307EE13E0C5E07801D5E038
:10474000F70161917191819191917F0120E030E0B9
:10475000A9010E9473BD81110EC0D15089F7C150CB
:104760000C5E1F4FC111EACFDF91CF911F910F91C6
:10477000FF90EF90089581E0F7CFCF92DF92EF9214
:10478000FF926B017C0183E3C816D104E104F104BC
:1047900070F082E3C81AD108E108F10862E370E022
:1047A00080E090E00E94387F0E94AE91ECCFC7017C
:1047B000B6010E94387FFF90EF90DF90CF900C946D
:1047C000AE918091BA04811104C08091F00A8823CF
:1047D00029F062E070E080E090E0CFCF0895809112
:1047E0004D03811111C080919503823069F01092C0
:1047F000600310926103109262031092630310929F
:1048000064038FEF0E9487171DCB81E0089590917C
:10481000C10095FD0CC09091C00095FF08C0809329
:10482000C6008091C00080648093C00008952091EC
:1048300015032F5F2F700FB607FC27C0909116034A
:10484000921328C09091C00095FF1EC0909116034E
:1048500040911503941306C09091C1009F7D9093E1
:10486000C10012C0E92FF0E0EB5EFC4F32819F5F88
:104870009F703093C600909316033091C00030644F
:104880003093C000491741F3D9CF9091160392138A
:1048900001C0FBCFE0911503F0E0EB5EFC4F82839B
:1048A000209315038091C10080628093C100089518
:1048B0008DE0ADDF8AE0ABCFCF93DF93EC01FE015B
:1048C00084912196882311F0A2DFF9CFDF91CF9157
:1048D0000895CF93C82FCB01EFDF83E495E1ECDFA0
:1048E00084E395E1CC2311F089E395E1E5DF8AE0EB
:1048F000CF918DCFCF9388E595E1DEDF8CB1C1E01C
:1049000085FB882780F962E575E18C27E2DF8091DD
:104910000301869581706CE475E18C27DADF89B13B
:1049200083FB882780F966E475E18C27CF91D1CF8E
:104930000F931F93CF938C01C62F8AE690E1BCDFC3
:10494000C801BADF8AE363DF80E38C0F60DF8AE0AF
:10495000CF911F910F915BCF86ED9CE0ADDF8AE098
:1049600056CFCF92DF92EF92FF926A017B01A4DFD4
:10497000C701B601FF90EF90DF90CF900C941179B2
:10498000CF92DF92EF92FF926A017B0195DF44E0C4
:10499000C701B601FF90EF90DF90CF900C94F480A8
:1049A000CF93DF936AE673E10E94D37AC091BF117F
:1049B000D091C011488159816A817B8181E693E160
:1049C000DFDF4C815D816E817F8185EB95E2D8DFF1
:1049D0004091BB115091BC116091BD117091BE11FD
:1049E00082EB95E2CDDF8EE593E166DFDF91CF913B
:1049F000B3CFCF93DF9365E170E10E94D37ACDEB23
:104A0000D4E0488159816A817B818CE090E1B8DFF4
:104A10004C815D816E817F8185EB95E2B1DF4885B8
:104A200059856A857B8582EB95E2AADF8AE0DF9172
:104A3000CF91EDCECF93DF936DEC7BE00E94D37AE4
:104A400060916F1070917010809171109091721040
:104A50000E9477BDAB01BC0184EC9BE091DF4091EB
:104A60009F105091A0106091A1107091A21081EC44
:104A70009BE086DF4091A3105091A4106091A51097
:104A80007091A6108EEB9BE07BDFC3E1DBE04881F9
:104A900059816A817B818FE79CE072DF4C815D8167
:104AA0006E817F8185EB95E26BDF488559856A854C
:104AB0007B8582EB95E264DF4C855D856E857F8525
:104AC0008FEA95E25DDF8AE0DF91CF91A0CECF93B0
:104AD000DF9364E77BE00E94D37ACFE5D0E14CA975
:104AE0005DA96EA97FA98BE69BE04ADF48AD59AD71
:104AF0006AAD7BAD88E69BE043DF4CAD5DAD6EAD4E
:104B00007FAD8EEB9BE03CDF8AE0DF91CF917FCEE3
:104B1000CF93DF9360E57BE00E94D37ACFE5D0E1CD
:104B20004CA15DA16EA17FA187E49BE029DF48A590
:104B300059A56AA57BA585EB95E222DF4CA55DA56D
:104B40006EA57FA582EB95E21BDF48A959A96AA94A
:104B50007BA98FEA95E214DF8AE0DF91CF9157CEEF
:104B6000CF93DF936BE27BE00E94D37ACFE5D0E175
:104B7000688179818A819B810E9477BDAB01BC01EC
:104B800082E29BE0FDDE6C817D818E819F810E94AF
:104B900077BDAB01BC0185EB95E2F2DE68857985D6
:104BA0008A859B850E9477BDAB01BC0182EB95E2B3
:104BB000E7DE6C857D858E859F850E9477BDAB0184
:104BC000BC018FEA95E2DCDE8AE0DF91CF911FCE57
:104BD000AF92BF92CF92DF92EF920F931F93CF933A
:104BE000DF935B01EA016901882309F45AC080EF71
:104BF0009AE062DEF501608171818281938146E0F5
:104C00000E94F480E1100AC087EE9AE055DE6881C8
:104C100079818A819B8146E00E94F48080EE9AE04F
:104C20004BDEF601608171818281938143E00E94B5
:104C3000F48089ED9AE040DEF80160817181828123
:104C4000938143E00E94F48080ED9AE035DEF60126
:104C50002081318142815381F8016081718182819B
:104C600093810E942FC443E00E94F480EE20D9F08B
:104C70008AE0CDDD8BEB9AE01FDE688179818A8145
:104C80009B8146E00E94F4808AE0C1DD8AE0DF91EA
:104C9000CF911F910F91EF90DF90CF90BF90AF9089
:104CA000B6CDE110E7CFDF91CF911F910F91EF903B
:104CB000DF90CF90BF90AF900895A9DD8FE697E089
:104CC000FBCD0F931F93CF938C01C62F8FE594E0FC
:104CD000F3DDC801F1DDCC2329F08AE0CF911F91EB
:104CE0000F9195CDCF911F910F91089560E08CEFBA
:104CF00094E2E7DF87E794E0DFDD8AE088CDEF929A
:104D0000FF920F931F93CF937C018B01C42F60E020
:104D10008CEF94E2D6DFC701CFDD80E278DDC801F9
:104D2000CBDDCC2311F08C2F72DD8AE0CF911F9167
:104D30000F91FF90EF906BCDDF92EF92FF920F9368
:104D40001F93CF93DF93D82E7B018A01E901CEDF39
:104D5000D092FB0A40E0B70180E195E2D0DF011577
:104D6000110529F040E0B80189E095E2C8DF2097FD
:104D700029F040E0BE0189E095E2C1DF60E08CEF00
:104D800094E29FDF84E095E297DD8AE0DF91CF91A6
:104D90001F910F91FF90EF90DF9039CDCF93DF936C
:104DA000EC0160E089E694E08CDFCE0185DD8AE0ED
:104DB000DF91CF912CCD2F923F924F925F926F92C5
:104DC0007F928F929F92AF92BF92CF92DF92EF929B
:104DD000FF920F931F93CF93DF93CDB7DEB7C956E2
:104DE000D1090FB6F894DEBF0FBECDBF70E060E012
:104DF00085E40E949B188F838F3F09F474C0882339
:104E0000E9F082E095E158DDC759DF4F0FB6F8941D
:104E1000DEBF0FBECDBFDF91CF911F910F91FF90ED
:104E2000EF90DF90CF90BF90AF909F908F907F904A
:104E30006F905F904F903F902F90089564EB70E0DB
:104E400083E50E949B18998B888B65E070E083E472
:104E50000E949B18582E60E085E50E94861868968F
:104E60008FAF689785EF94E199DF0E94D27F6A8BBC
:104E70007B8B8C8B9D8B2F8104E110E088E0682E6A
:104E8000712C2F3F29F40CE310E0B6E06B2E712C4F
:104E90008A899B89AC89BD898C53964FAF4FBF4F90
:104EA0008093790490937A04A0937B04B0937C045C
:104EB0003F813F3F09F4A8C1C32E330FDD08F6013F
:104EC000A3E0EE0FFF1FAA95E1F7E55BFD4F86819A
:104ED00097810F9748895989841795070CF052C319
:104EE0008AEC94E190CF66E470E0AACF65961FAE9D
:104EF0006597D5C11091890430908A0420908B0465
:104F000000918C0477C25CDBB0C26796EEADFFAD5A
:104F10006797808306C34BEE842E912CA12CB12C75
:104F2000A9C384E190E0A0E0B0E08A8F9B8FAC8FB2
:104F3000BD8F34E1832E912CA12CB12CABC38A8E72
:104F40009B8EAC8EBD8EA6C32AE939E949E15FE3A9
:104F500080E090E0A0E0BEE306C481E794E145C4B0
:104F60006796EEADFFAD679780836AC4D301C20137
:104F700025962CAD3DAD4EAD5FAD2597821B930BB5
:104F8000A40BB50BB7FD5BC065968FAD65970E940E
:104F900093818AE03CDCD301C2018053984FAF4F2C
:104FA000BF4F25968CAF9DAFAEAFBFAF259726966E
:104FB0009FAD2697911173C02A962CAD3DAD4EAD95
:104FC0005FAD2A97612F732D822D902F0E9457C6B7
:104FD00018160CF04EC020E030E040E050E4612FA5
:104FE000732D822D902F0E9430C42A966CAF7DAF16
:104FF0008EAF9FAF2A9721962CAD3DAD4EAD5FADE4
:105000002197240D351D461D571D2E962CAF3DAF03
:105010004EAF5FAF2E97A8966CAD7DAD8EAD9FADB8
:10502000A8970E9479BD212F332D422D502F0E9429
:1050300073BD881F8827881F26968FAF26978A8979
:105040009B89AC89BD89C816D906EA06FB0610F40F
:10505000D701C601481A590A6A0A7B0A31E8431681
:105060003FE4530632E16306710480F186E194E186
:105070007BC2D301C2012E962CAD3DAD4EAD5FADCE
:105080002E97821B930BA40BB50B42E850E261E90B
:1050900070E2B7FDD4CF8F810E943090D0CFA4961C
:1050A0006CAD7DAD8EAD9FADA4970E9479BD9B0187
:1050B000AC01612F732D822D902F0E9473BD87FF4D
:1050C000BECF4CEE50E26CEF70E2E5CFAA964EAD4B
:1050D0005FADAA978AA19BA1481759070CF069C137
:1050E00003970CF466C189EB93E1E6DB9F8109EA43
:1050F00013E19F3F11F008EA13E187E993E1DCDB5C
:10510000C801DADB488559856A857B8585EB93E1A3
:1051100037DC8AE07CDB87E993E1CEDBC801CCDBBE
:105120004AA55BA56CA57DA581EB93E129DC8AE00E
:105130006EDB87E993E1C0DBC801BEDB4EA55FA54E
:1051400068A979A98DEA93E11BDC8AE060DB6896A7
:10515000AFAD6897AA23A9F12CEA35EC47E25EE3EC
:105160006AA57BA58CA59DA50E94D8BD6B017C017D
:105170002CEA35EC47E25EE36EA57FA588A999A9E4
:105180000E940CC5BF81288539854A855B85BF3F54
:1051900011F52093AD043093AE044093AF045093C7
:1051A000B004C092B104D092B204E092B304F09281
:1051B000B4046093B5047093B6048093B7049093DD
:1051C000B8048AAD9BADACAD89839A83AB83CE0125
:1051D0000196C1D919CE2093900430939104409345
:1051E000920450939304C0929404D0929504E09258
:1051F0009604F092970460939804709399048093B6
:105200009A0490939B04DDCF488959894D38510504
:105210000CF066CE86EB94E14FDB0E9450828FE764
:105220008093AC042091A6043091A7044091A80477
:105230005091A90464962CAF3DAF4EAF5FAF649719
:1052400080939D040E94F0826AAF7BAF8CAF98017F
:10525000A8EEB3E00E94EBC321966CAF7DAF8EAF9A
:105260009FAF21972A893B894C895D89260F371F7B
:10527000481F591F2E962CAF3DAF4EAF5FAF2E97F4
:1052800081E0809348023F813E5F60963FAF609728
:10529000323008F42BCE4F8165964FAF6597CA88A0
:1052A000DB88EC88FD882596CCAEDDAEEEAEFFAE99
:1052B00025971EA61FA618AA19AA1AA61BA61CA6E1
:1052C0001DA6188619861A861B868FE790E0A0E037
:1052D000B0E08A8F9B8FAC8FBD8F1C8690E49E8B35
:1052E000ACE1ACA3B6E4BDA31EA21FA218A619A6EA
:1052F000FFE78F2E912CA12CB12C26961FAE26975E
:105300002A961CAE1DAE1EAE1FAE2A971EAA1FAA5D
:1053100018AE19AEE1E0EDAB1BA21AA210E0312CE1
:10532000212C00E028893989032E000C440B550BF1
:105330006C962CAF3DAF4EAF5FAF6C973F8147E1AE
:105340003402C0011124DC01A157BB4F6796BFAFE7
:10535000AEAF6797888999894E969C01990F440B47
:10536000550BA0962CAF3DAF4EAF5FAFA09788898D
:1053700099894E979C01990F440B550BA4962CAF1D
:105380003DAF4EAF5FAFA497888999898619970979
:105390009C01990F440B550BA8962CAF3DAF4EAF17
:1053A0005FAFA897452D550C550BAA965FAF4EAF32
:1053B000AA9780914802882309F4D7C00E94D27F1F
:1053C0002B013C0150917F042F965FAF2F975523FF
:1053D00009F4B8C00E943C9110927F048F818F3FE6
:1053E00009F088CD1091A6043090A7042090A8045D
:1053F0000091A9042EA13FA148A559A5612F732DA5
:10540000822D902F0E9457C6181624F41EA33FA287
:1054100028A609A72C853E894CA15DA1612F732D7B
:10542000822D902F0E9473BD87FF04C01C873E8A87
:105430002CA20DA364966CAD7DAD8EAD9FAD64972F
:105440000E9474C56E8F7F8F88A399A3612F732DDF
:10545000822D902F0E9474C5AF81488959898E8D05
:105460009F8DAF3F09F04FCDFED880917904909188
:105470007A04A0917B04B0917C04A3019201281BC3
:10548000390B4A0B5B0BDA01C901B7FD10C00E9452
:10549000B582D301C2018C53964FAF4FBF4F80935B
:1054A000790490937A04A0937B04B0937C046C9667
:1054B0006CAD7DAD8EAD9FAD6C970E9479BD6E8F4A
:1054C0007AAB8BAB9CAB3DA9332309F47BC09B012A
:1054D000AC01612F732D822D902F0E9457C6181694
:1054E0008CF5B301A2014C195D096E097F09DB013E
:1054F000CA0188589341A109B109B7FD23C08A8D1B
:105500009B8DAC8DBD8D88199909AA09BB09B595EC
:10551000A79597958795EF81EF3F09F0F6CC80939B
:10552000AC044EAB5FAB68AF79AFFE8DFEA32AA98A
:105530002FA33BA938A74CA949A74A8A5B8A6C8A42
:105540007D8A1DAAA0966CAD7DAD8EAD9FADA09756
:105550000E9479BD212F332D422D502F0E9473BD03
:1055600087FF04CD84E394E1A7D9109248020E94FA
:1055700050822AAD3BAD4CAD2C833D834E83CE0192
:10558000049627CE86EB94E197D90E94508287E15A
:105590008C9DF0018D9DF00D1124EB57FB4F8FE793
:1055A00082878091890490918A04A0918B04B091A4
:1055B0008C0464968CAF9DAFAEAFBFAF6497109272
:1055C0009D0440CE2E8D3AA94BA95CA9612F732D65
:1055D000822D902F0E9473BD87FFB4CFD301C201EB
:1055E0002A893B894C895D89821B930BA40BB50BDF
:1055F000AC01BD01485853416109710977FDA2CF43
:105600004AA15BA1452B09F409C1CEA8DFA8E8ACEB
:10561000F9ACC80ED91EEA1EFB1E2EA93FA948AD43
:1056200059AD281B390B4A0B5B0BC501B4010E9415
:105630008EC3A70196010E94BFC38A8C9B8CAC8C41
:10564000BD8C820E931EA41EB51E54E185169104D6
:10565000A104B1040CF465CC8CEE88169104A1046D
:10566000B1040CF058CC90E889169104A104B1045F
:105670000CF465CC8A8E9B8EAC8EBD8E8EEF90E046
:10568000A0E0B0E09C01AD01281939094A095B0985
:1056900049015A014A8D5B8D6C8D7D8D8EEA94E1B6
:1056A00060D9B501A40189EA94E15BD94C855E8992
:1056B0006CA17DA182EA94E163D94EA15FA168A5A6
:1056C00079A58BE994E15CD9AAA1BBA113970CF44D
:1056D000A5C0C501B4010E9479BD20E030E040E8DA
:1056E00050E40E94D8BD688779878A879B872C857C
:1056F0003E894CA15DA16EA17FA188A599A50E94BC
:105700002FC42BED3FE049E450E40E94D8BD20E0D7
:1057100030E040E05FE30E94D8BD9B01AC016885AA
:1057200079858A859B850E940CC56E8B7F8B888FBF
:10573000998FC701B6010E9479BD2FE632E143E897
:105740005AE30E94D8BD6B017C01BF81BE3F19F0B6
:10575000BF3F09F0F9CB2DEC3CEC4CE45EE38BEA67
:105760009AEAAAEABEE38C879D87AE87BF876E89D7
:105770007F89888D998D0E94D8BD688779878A87AF
:105780009B879B01AC010E9430C4A70196010E9437
:105790000CC56AA77BA78CA79DA7288539854A8554
:1057A0005B85C701B6010E94D8BD2C853D854E851D
:1057B0005F850E94D8BD6EA77FA788AB99AB4E8945
:1057C0005F89688D798D85E994E1DAD8B701A60102
:1057D0008FE894E1D5D88AE01AD860969FAD60979B
:1057E000923008F0BACB80E894E166D848855985B4
:1057F0006A857B858BE694E1C3D84AA55BA56CA539
:105800007DA585E694E1BCD84EA55FA568A979A9D8
:105810008FE594E1B5D88AE00E9407248A8D9B8D9C
:10582000AC8DBD8D880D991DAA1DBB1DB595A79585
:1058300097958795EF81EF3F09F092CB8093AC0469
:105840002AA13BA12F5F3F4F3BA32AA33E8D3C875C
:105850004AA94E8B5BA95CA38CA98DA3730162013D
:105860002F969FAD2F979DAB6DCECF93DF939091E9
:105870005B1093FD3EC0C82F83E50E947B17D82F95
:10588000882381F10E9498188C389105ACF590938B
:10589000AB048093AA040E94DF216091AA04709156
:1058A000AB04072E000C880B990B0E9479BD209148
:1058B000A6043091A7044091A8045091A9040E9425
:1058C00057C61816E4F089E793E168DA61E06C27BF
:1058D0008C2F0E943A82CC2361F08D2FDF91CF91E3
:1058E0000C94FF82CC2329F082E50E947B17811162
:1058F000C9CFDF91CF9108958CE890E0C8CF88E8B8
:1059000093E1E3CF811107C080E394E00E945C241F
:105910008AE00C94072484E394E0F8CF4F925F92DE
:105920006F927F928F929F92AF92BF92CF92DF92AF
:10593000EF92FF92CF93DF93CDB7DEB72C970FB6E0
:10594000F894DEBF0FBECDBF83E50E942D178823DC
:10595000C9F00E94771880931E022C960FB6F89417
:10596000DEBF0FBECDBFDF91CF91FF90EF90DF90F4
:10597000CF90BF90AF909F908F907F906F905F90EF
:105980004F90089561EA7CE081E00E94D37A809193
:105990001E02898388E99CE00E945C248981805DE5
:1059A0000E94072484E99CE00E945C248981AADF8C
:1059B00040909F115090A0116090A1117090A21181
:1059C0002091200230912102409122025091230225
:1059D000C301B2010E9430C469837A838B839C83A4
:1059E0008090A3119090A411A090A511B090A61141
:1059F00020912402309125024091260250912702E5
:105A0000C501B4010E9430C46D837E838F83988763
:105A1000C090A711D090A811E090A911F090AA1100
:105A2000209128023091290240912A0250912B02A4
:105A3000C701B6010E9430C469877A878B879C872B
:105A400020912C0230912D0240912E0250912F0274
:105A5000C301B2010E9430C42B013C0120913002ED
:105A6000309131024091320250913302C501B401AC
:105A70000E9430C44B015C01209134023091350208
:105A80004091360250913702C701B6010E9430C4DE
:105A90006B017C018CE89CE00E945C2449815A8166
:105AA0006B817C818FE79CE00E94C0244D815E81E8
:105AB0006F81788585EB95E20E94C02449855A85DF
:105AC0006B857C8582EB95E20E94C0248AE89CE08D
:105AD0000E945C2482E89CE00E945C24B301A20145
